{
  "_format": "hh-sol-artifact-1",
  "contractName": "ThaliumSecurity",
  "sourceName": "contracts/ThaliumSecurity.sol",
  "abi": [
    {
      "inputs": [
        {
          "internalType": "address",
          "name": "defaultAdmin",
          "type": "address"
        },
        {
          "internalType": "address",
          "name": "securityAdmin",
          "type": "address"
        },
        {
          "internalType": "address",
          "name": "complianceOfficer",
          "type": "address"
        }
      ],
      "stateMutability": "nonpayable",
      "type": "constructor"
    },
    {
      "inputs": [],
      "name": "AccessControlBadConfirmation",
      "type": "error"
    },
    {
      "inputs": [
        {
          "internalType": "address",
          "name": "account",
          "type": "address"
        },
        {
          "internalType": "bytes32",
          "name": "neededRole",
          "type": "bytes32"
        }
      ],
      "name": "AccessControlUnauthorizedAccount",
      "type": "error"
    },
    {
      "inputs": [],
      "name": "EnforcedPause",
      "type": "error"
    },
    {
      "inputs": [],
      "name": "ExpectedPause",
      "type": "error"
    },
    {
      "inputs": [],
      "name": "ReentrancyGuardReentrantCall",
      "type": "error"
    },
    {
      "anonymous": false,
      "inputs": [
        {
          "indexed": true,
          "internalType": "address",
          "name": "activator",
          "type": "address"
        },
        {
          "indexed": false,
          "internalType": "string",
          "name": "reason",
          "type": "string"
        }
      ],
      "name": "EmergencyModeActivated",
      "type": "event"
    },
    {
      "anonymous": false,
      "inputs": [
        {
          "indexed": true,
          "internalType": "address",
          "name": "deactivator",
          "type": "address"
        }
      ],
      "name": "EmergencyModeDeactivated",
      "type": "event"
    },
    {
      "anonymous": false,
      "inputs": [
        {
          "indexed": false,
          "internalType": "address",
          "name": "account",
          "type": "address"
        }
      ],
      "name": "Paused",
      "type": "event"
    },
    {
      "anonymous": false,
      "inputs": [
        {
          "indexed": true,
          "internalType": "bytes32",
          "name": "role",
          "type": "bytes32"
        },
        {
          "indexed": true,
          "internalType": "bytes32",
          "name": "previousAdminRole",
          "type": "bytes32"
        },
        {
          "indexed": true,
          "internalType": "bytes32",
          "name": "newAdminRole",
          "type": "bytes32"
        }
      ],
      "name": "RoleAdminChanged",
      "type": "event"
    },
    {
      "anonymous": false,
      "inputs": [
        {
          "indexed": true,
          "internalType": "bytes32",
          "name": "role",
          "type": "bytes32"
        },
        {
          "indexed": true,
          "internalType": "address",
          "name": "account",
          "type": "address"
        },
        {
          "indexed": true,
          "internalType": "address",
          "name": "sender",
          "type": "address"
        }
      ],
      "name": "RoleGranted",
      "type": "event"
    },
    {
      "anonymous": false,
      "inputs": [
        {
          "indexed": true,
          "internalType": "bytes32",
          "name": "role",
          "type": "bytes32"
        },
        {
          "indexed": true,
          "internalType": "address",
          "name": "account",
          "type": "address"
        },
        {
          "indexed": true,
          "internalType": "address",
          "name": "sender",
          "type": "address"
        }
      ],
      "name": "RoleRevoked",
      "type": "event"
    },
    {
      "anonymous": false,
      "inputs": [
        {
          "indexed": true,
          "internalType": "uint256",
          "name": "eventId",
          "type": "uint256"
        },
        {
          "indexed": true,
          "internalType": "address",
          "name": "actor",
          "type": "address"
        },
        {
          "indexed": true,
          "internalType": "bytes32",
          "name": "eventType",
          "type": "bytes32"
        },
        {
          "indexed": false,
          "internalType": "uint256",
          "name": "severity",
          "type": "uint256"
        }
      ],
      "name": "SecurityEventLogged",
      "type": "event"
    },
    {
      "anonymous": false,
      "inputs": [
        {
          "indexed": false,
          "internalType": "address",
          "name": "account",
          "type": "address"
        }
      ],
      "name": "Unpaused",
      "type": "event"
    },
    {
      "inputs": [],
      "name": "COMPLIANCE_ROLE",
      "outputs": [
        {
          "internalType": "bytes32",
          "name": "",
          "type": "bytes32"
        }
      ],
      "stateMutability": "view",
      "type": "function"
    },
    {
      "inputs": [],
      "name": "DEFAULT_ADMIN_ROLE",
      "outputs": [
        {
          "internalType": "bytes32",
          "name": "",
          "type": "bytes32"
        }
      ],
      "stateMutability": "view",
      "type": "function"
    },
    {
      "inputs": [],
      "name": "SECURITY_ADMIN_ROLE",
      "outputs": [
        {
          "internalType": "bytes32",
          "name": "",
          "type": "bytes32"
        }
      ],
      "stateMutability": "view",
      "type": "function"
    },
    {
      "inputs": [
        {
          "internalType": "string",
          "name": "reason",
          "type": "string"
        }
      ],
      "name": "activateEmergencyMode",
      "outputs": [],
      "stateMutability": "nonpayable",
      "type": "function"
    },
    {
      "inputs": [],
      "name": "deactivateEmergencyMode",
      "outputs": [],
      "stateMutability": "nonpayable",
      "type": "function"
    },
    {
      "inputs": [],
      "name": "emergencyActivatedAt",
      "outputs": [
        {
          "internalType": "uint256",
          "name": "",
          "type": "uint256"
        }
      ],
      "stateMutability": "view",
      "type": "function"
    },
    {
      "inputs": [],
      "name": "emergencyMode",
      "outputs": [
        {
          "internalType": "bool",
          "name": "",
          "type": "bool"
        }
      ],
      "stateMutability": "view",
      "type": "function"
    },
    {
      "inputs": [],
      "name": "getEmergencyStatus",
      "outputs": [
        {
          "internalType": "bool",
          "name": "isActive",
          "type": "bool"
        },
        {
          "internalType": "uint256",
          "name": "activatedAt",
          "type": "uint256"
        },
        {
          "internalType": "uint256",
          "name": "duration",
          "type": "uint256"
        }
      ],
      "stateMutability": "view",
      "type": "function"
    },
    {
      "inputs": [
        {
          "internalType": "bytes32",
          "name": "role",
          "type": "bytes32"
        }
      ],
      "name": "getRoleAdmin",
      "outputs": [
        {
          "internalType": "bytes32",
          "name": "",
          "type": "bytes32"
        }
      ],
      "stateMutability": "view",
      "type": "function"
    },
    {
      "inputs": [
        {
          "internalType": "uint256",
          "name": "index",
          "type": "uint256"
        }
      ],
      "name": "getSecurityEvent",
      "outputs": [
        {
          "internalType": "address",
          "name": "actor",
          "type": "address"
        },
        {
          "internalType": "uint256",
          "name": "timestamp",
          "type": "uint256"
        },
        {
          "internalType": "bytes32",
          "name": "eventType",
          "type": "bytes32"
        },
        {
          "internalType": "string",
          "name": "details",
          "type": "string"
        },
        {
          "internalType": "uint256",
          "name": "severity",
          "type": "uint256"
        }
      ],
      "stateMutability": "view",
      "type": "function"
    },
    {
      "inputs": [
        {
          "internalType": "uint256",
          "name": "offset",
          "type": "uint256"
        },
        {
          "internalType": "uint256",
          "name": "limit",
          "type": "uint256"
        }
      ],
      "name": "getSecurityEventIndices",
      "outputs": [
        {
          "internalType": "uint256[]",
          "name": "indices",
          "type": "uint256[]"
        }
      ],
      "stateMutability": "view",
      "type": "function"
    },
    {
      "inputs": [],
      "name": "getSecurityEventsCount",
      "outputs": [
        {
          "internalType": "uint256",
          "name": "",
          "type": "uint256"
        }
      ],
      "stateMutability": "view",
      "type": "function"
    },
    {
      "inputs": [
        {
          "internalType": "bytes32",
          "name": "role",
          "type": "bytes32"
        },
        {
          "internalType": "address",
          "name": "account",
          "type": "address"
        }
      ],
      "name": "grantRole",
      "outputs": [],
      "stateMutability": "nonpayable",
      "type": "function"
    },
    {
      "inputs": [
        {
          "internalType": "bytes32",
          "name": "role",
          "type": "bytes32"
        },
        {
          "internalType": "address",
          "name": "account",
          "type": "address"
        }
      ],
      "name": "hasRole",
      "outputs": [
        {
          "internalType": "bool",
          "name": "",
          "type": "bool"
        }
      ],
      "stateMutability": "view",
      "type": "function"
    },
    {
      "inputs": [],
      "name": "isEmergencyActive",
      "outputs": [
        {
          "internalType": "bool",
          "name": "",
          "type": "bool"
        }
      ],
      "stateMutability": "view",
      "type": "function"
    },
    {
      "inputs": [
        {
          "internalType": "address",
          "name": "actor",
          "type": "address"
        },
        {
          "internalType": "bytes32",
          "name": "eventType",
          "type": "bytes32"
        },
        {
          "internalType": "string",
          "name": "details",
          "type": "string"
        },
        {
          "internalType": "uint256",
          "name": "severity",
          "type": "uint256"
        }
      ],
      "name": "logSecurityEvent",
      "outputs": [],
      "stateMutability": "nonpayable",
      "type": "function"
    },
    {
      "inputs": [],
      "name": "nextEventId",
      "outputs": [
        {
          "internalType": "uint256",
          "name": "",
          "type": "uint256"
        }
      ],
      "stateMutability": "view",
      "type": "function"
    },
    {
      "inputs": [],
      "name": "paused",
      "outputs": [
        {
          "internalType": "bool",
          "name": "",
          "type": "bool"
        }
      ],
      "stateMutability": "view",
      "type": "function"
    },
    {
      "inputs": [
        {
          "internalType": "bytes32",
          "name": "role",
          "type": "bytes32"
        },
        {
          "internalType": "address",
          "name": "callerConfirmation",
          "type": "address"
        }
      ],
      "name": "renounceRole",
      "outputs": [],
      "stateMutability": "nonpayable",
      "type": "function"
    },
    {
      "inputs": [
        {
          "internalType": "bytes32",
          "name": "role",
          "type": "bytes32"
        },
        {
          "internalType": "address",
          "name": "account",
          "type": "address"
        }
      ],
      "name": "revokeRole",
      "outputs": [],
      "stateMutability": "nonpayable",
      "type": "function"
    },
    {
      "inputs": [
        {
          "internalType": "uint256",
          "name": "",
          "type": "uint256"
        }
      ],
      "name": "securityEvents",
      "outputs": [
        {
          "internalType": "address",
          "name": "actor",
          "type": "address"
        },
        {
          "internalType": "uint256",
          "name": "timestamp",
          "type": "uint256"
        },
        {
          "internalType": "bytes32",
          "name": "eventType",
          "type": "bytes32"
        },
        {
          "internalType": "string",
          "name": "details",
          "type": "string"
        },
        {
          "internalType": "uint256",
          "name": "severity",
          "type": "uint256"
        }
      ],
      "stateMutability": "view",
      "type": "function"
    },
    {
      "inputs": [
        {
          "internalType": "bytes4",
          "name": "interfaceId",
          "type": "bytes4"
        }
      ],
      "name": "supportsInterface",
      "outputs": [
        {
          "internalType": "bool",
          "name": "",
          "type": "bool"
        }
      ],
      "stateMutability": "view",
      "type": "function"
    }
  ],
  "bytecode": "0x608034620001c657601f62001ed438819003918201601f191683019291906001600160401b03841183851017620001cb578160609284926040968752833981010312620001c6576200005181620001e1565b906200006d836200006560208401620001e1565b9201620001e1565b6001600255916001600160a01b03808216156200017357808316156200011f57831615620000c757620000b89291620000aa620000b192620001f6565b5062000276565b5062000318565b5051611afe9081620003b68239f35b835162461bcd60e51b815260206004820152602b60248201527f5468616c69756d53656375726974793a20496e76616c696420636f6d706c696160448201526a3731b29037b33334b1b2b960a91b6064820152608490fd5b845162461bcd60e51b815260206004820152602760248201527f5468616c69756d53656375726974793a20496e76616c696420736563757269746044820152663c9030b236b4b760c91b6064820152608490fd5b845162461bcd60e51b815260206004820152602660248201527f5468616c69756d53656375726974793a20496e76616c69642064656661756c746044820152651030b236b4b760d11b6064820152608490fd5b600080fd5b634e487b7160e01b600052604160045260246000fd5b51906001600160a01b0382168203620001c657565b6001600160a01b031660008181527fad3228b676f7d3cd4284a5443f17f1962b36e491b30a40b2405849e597ba5fb5602052604081205490919060ff166200027257818052816020526040822081835260205260408220600160ff19825416179055339160008051602062001eb48339815191528180a4600190565b5090565b6001600160a01b031660008181527faf98f812aff7afa65a38f385cbfe2372f92503364ec36993ce9a374828fff18b60205260408120549091907ff6e67e455c1170019df813a9dcb568f910c16426a5a6faffb00d325d6f118b679060ff166200031357808352826020526040832082845260205260408320600160ff1982541617905560008051602062001eb4833981519152339380a4600190565b505090565b6001600160a01b031660008181527f335573aa7cafba10a32e2694464d1e7e5294d917876d04d506249fbf84d791af60205260408120549091907f442a94f1a1fac79af32856af2a64f63648cfa2ef3b98610a5bb7cbec4cee69859060ff166200031357808352826020526040832082845260205260408320600160ff1982541617905560008051602062001eb4833981519152339380a460019056fe608080604052600436101561001357600080fd5b60003560e01c90816301ffc9a7146114ac57508063062d3bd7146114715780630905f560146112f4578063248a9ca3146114425780632f2ff15d1461140357806334e2e2711461139f57806336568abe146113585780633d63f2151461133a5780635c975abb146113175780635f951529146112f45780637730b0d0146112105780637afa85e8146111d55780637c2df02614610d1c57806391d1485414610ccf57806399b20eaf146107fd5780639f9d903a146107df578063a217fddf146107c3578063bf896e7914610760578063c124a247146101c1578063d547741f14610180578063f2ca5817146101625763fa37273c1461011157600080fd5b3461015d57600036600319011261015d57606060ff60035416600454816000146101555761013f8142611774565b905b604051921515835260208301526040820152f35b600090610141565b600080fd5b3461015d57600036600319011261015d576020600554604051908152f35b3461015d57604036600319011261015d576101bf60043561019f6114ff565b908060005260006020526101ba600160406000200154611860565b611904565b005b3461015d57602036600319011261015d5767ffffffffffffffff60043581811161015d576101f39036906004016115c9565b3360009081527faf98f812aff7afa65a38f385cbfe2372f92503364ec36993ce9a374828fff18b60205260409020547ff6e67e455c1170019df813a9dcb568f910c16426a5a6faffb00d325d6f118b679060ff1615610742575060035460ff81166106ea578151156106a65760ff19166001176003554260045560065461027981611979565b600655604051926102898461158b565b3384526020840190428252604085017f4f8cc011a08c6433f312620503bac0a844ecbac5a88f1e58f55ce3fc24f5bfaf8152606086019085825260046080880152600554600160401b811015610690578060016102e99201600555611620565b94909461050257875185546001600160a01b0319166001600160a01b03919091161785555160018501555160028401555180519182116106905761033d826103346003860154611670565b6003860161199f565b602090601f83116001146105f95795610396836004946080947f4f8cc011a08c6433f312620503bac0a844ecbac5a88f1e58f55ce3fc24f5bfaf999a6000926105ee575b50508160011b916000199060031b1c19161790565b60038501555b015191015560405190600482527f611d64becbbf3586210156fd1f848920d3b022e620111fa38f49ca64e8dac25860203393a46103e860055411610418575b7fa8bfc00a82dac609a5575e0d4bf2d4f2284be6d96c469bef935e1f8319277f4b604051602081528061041333946020830190611515565b0390a2005b6301e1337f194201904282116105d85760009160005b6005548110806105cd575b156105185781600161044a83611620565b5001541015610462575b61045d90611979565b61042e565b9283810361047f575b61047761045d91611979565b939050610454565b61048884611620565b5061049282611620565b9290926105025782826104779361045d95036104b3575b505091505061046b565b6004809160018060a01b038154166001600160601b0360a01b85541617845560018101546001850155600281015460028501556104f660038201600386016119e4565b015491015586806104a9565b634e487b7160e01b600052600060045260246000fd5b50505b600554828111156105c55780156105af576000190161053981611620565b6105025760048160008093558260018201558260028201556003810161055f8154611670565b9081610572575b5050015560055561051b565b81601f8693116001146105895750555b8680610566565b9080839182526105a8601f60208420940160051c840160018501611988565b5555610582565b634e487b7160e01b600052603160045260246000fd5b5090506103db565b5061c3505a11610439565b634e487b7160e01b600052601160045260246000fd5b015190508a80610381565b906003840160005260206000209160005b601f19851681106106785750836080937f4f8cc011a08c6433f312620503bac0a844ecbac5a88f1e58f55ce3fc24f5bfaf989993600193600497601f1981161061065f575b505050811b01600385015561039c565b015160001960f88460031b161c1916905589808061064f565b9192602060018192868501518155019401920161060a565b634e487b7160e01b600052604160045260246000fd5b606460405162461bcd60e51b815260206004820152602060248201527f5468616c69756d53656375726974793a20526561736f6e2072657175697265646044820152fd5b60405162461bcd60e51b815260206004820152602a60248201527f5468616c69756d53656375726974793a20416c726561647920696e20656d657260448201526967656e6379206d6f646560b01b6064820152608490fd5b6044906040519063e2517d3f60e01b82523360048301526024820152fd5b3461015d57602036600319011261015d5760043560055481101561015d5761078790611620565b5060018060a01b038154166107bf60018301549260028101549060046107af600383016116aa565b9101549160405195869586611555565b0390f35b3461015d57600036600319011261015d57602060405160008152f35b3461015d57600036600319011261015d576020600654604051908152f35b3461015d57600036600319011261015d573360009081527fad3228b676f7d3cd4284a5443f17f1962b36e491b30a40b2405849e597ba5fb5602052604090205460ff1615610cb05760035460ff811615610c5c5760ff19166003556040805167ffffffffffffffff9181018281118282101761069057604052601a81527f456d657267656e6379206d6f64652064656163746976617465640000000000006020820152600654906108ad82611979565b6006556040516108bc8161158b565b3381526020810191428352604082017f3d54cad0638d1bdde01754501001cf4d60a0c6b5536b3037c0dc2635d546e85781526060830191825260026080840152600554600160401b8110156106905780600161091b9201600555611620565b94909461050257835185546001600160a01b0319166001600160a01b03919091161785555160018501555160028401555180519094811161069057610967816103346003860154611670565b6020601f8211600114610bc757916109bd826080936004957f3d54cad0638d1bdde01754501001cf4d60a0c6b5536b3037c0dc2635d546e85799600092610bbc5750508160011b916000199060031b1c19161790565b60038501555b015191015560405190600282527f611d64becbbf3586210156fd1f848920d3b022e620111fa38f49ca64e8dac25860203393a46103e860055411610a2a575b337fbd95437b04432c9bbcf6d10c00e0e1cdc482151ffe5da10870858d456ee9fc23600080a2005b6301e1337f1942014281116105d85760009060005b600554811080610bb1575b15610b1357816001610a5b83611620565b5001541015610a73575b610a6e90611979565b610a3f565b91828103610a90575b610a88610a6e91611979565b929050610a65565b610a9983611620565b50610aa382611620565b929092610502578282610a8893610a6e9503610ac4575b5050915050610a7c565b6004809160018060a01b038154166001600160601b0360a01b8554161784556001810154600185015560028101546002850155610b0760038201600386016119e4565b01549101558580610aba565b50505b60055481811115610baa5780156105af5760001901610b3481611620565b61050257600481600080935582600182015582600282015560038101610b5a8154611670565b9081610b6d575b50500155600555610b16565b81601f869311600114610b845750555b8580610b61565b908083918252610ba3601f60208420940160051c840160018501611988565b5555610b7d565b5050610a02565b5061c3505a11610a4a565b015190508980610381565b6003840160005260206000209560005b601f1984168110610c445750827f3d54cad0638d1bdde01754501001cf4d60a0c6b5536b3037c0dc2635d546e8579760049593600193608096601f19811610610c2b575b505050811b0160038501556109c3565b015160001960f88460031b161c19169055888080610c1b565b82820151885560019097019660209283019201610bd7565b60405162461bcd60e51b815260206004820152602660248201527f5468616c69756d53656375726974793a204e6f7420696e20656d657267656e6360448201526579206d6f646560d01b6064820152608490fd5b60405163e2517d3f60e01b815233600482015260006024820152604490fd5b3461015d57604036600319011261015d57610ce86114ff565b600435600052600060205260406000209060018060a01b0316600052602052602060ff604060002054166040519015158152f35b3461015d57608036600319011261015d576004356001600160a01b038116810361015d5760443567ffffffffffffffff811161015d57610d609036906004016115c9565b3360009081527f335573aa7cafba10a32e2694464d1e7e5294d917876d04d506249fbf84d791af60205260409020547f442a94f1a1fac79af32856af2a64f63648cfa2ef3b98610a5bb7cbec4cee69859060ff1615610742575060016064351015806111c8575b156111795780511561112a5760065490610de082611979565b60065560405190610df08261158b565b6001600160a01b0384168252426020830152602435604083015260608201526064356080820152600554600160401b81101561069057806001610e369201600555611620565b91909161050257805182546001600160a01b0319166001600160a01b03919091161782556020810151600183015560408101516002830155606081015180519067ffffffffffffffff821161069057610e9f82610e966003870154611670565b6003870161199f565b602090601f83116001146110b5578260809360049593610ed593600092610bbc5750508160011b916000199060031b1c19161790565b60038501555b01519101556040516064358152602435926001600160a01b031691907f611d64becbbf3586210156fd1f848920d3b022e620111fa38f49ca64e8dac25890602090a46103e860055411610f2a57005b6301e1337f1942014281116105d85760009060005b6005548110806110aa575b1561101357816001610f5b83611620565b5001541015610f73575b610f6e90611979565b610f3f565b91828103610f90575b610f88610f6e91611979565b929050610f65565b610f9983611620565b50610fa382611620565b929092610502578282610f8893610f6e9503610fc4575b5050915050610f7c565b6004809160018060a01b038154166001600160601b0360a01b855416178455600181015460018501556002810154600285015561100760038201600386016119e4565b01549101558580610fba565b50505b600554818111156101bf5780156105af576000190161103481611620565b6105025760048160008093558260018201558260028201556003810161105a8154611670565b908161106d575b50500155600555611016565b81601f8693116001146110845750555b8580611061565b9080839182526110a3601f60208420940160051c840160018501611988565b555561107d565b5061c3505a11610f4a565b906003850160005260206000209160005b601f19851681106111125750926004949260019260809583601f198116106110f9575b505050811b016003850155610edb565b015160001960f88460031b161c191690558880806110e9565b919260206001819286850151815501940192016110c6565b60405162461bcd60e51b815260206004820152602160248201527f5468616c69756d53656375726974793a2044657461696c7320726571756972656044820152601960fa1b6064820152608490fd5b60405162461bcd60e51b815260206004820152602160248201527f5468616c69756d53656375726974793a20496e76616c696420736576657269746044820152607960f81b6064820152608490fd5b5060046064351115610dc7565b3461015d57600036600319011261015d5760206040517ff6e67e455c1170019df813a9dcb568f910c16426a5a6faffb00d325d6f118b678152f35b3461015d57602036600319011261015d576004356005548110156112a35761123790611620565b50604051906112458261158b565b80546001600160a01b0390811683526001820154602084019081526002830154604085019081529390926107bf926004611281600384016116aa565b9283606086015201549283608082015251169351945160405195869586611555565b60405162461bcd60e51b8152602060048201526024808201527f5468616c69756d53656375726974793a20496e646578206f7574206f6620626f604482015263756e647360e01b6064820152608490fd5b3461015d57600036600319011261015d57602060ff600354166040519015158152f35b3461015d57600036600319011261015d57602060ff600154166040519015158152f35b3461015d57600036600319011261015d576020600454604051908152f35b3461015d57604036600319011261015d576113716114ff565b336001600160a01b0382160361138d576101bf90600435611904565b60405163334bd91960e11b8152600490fd5b3461015d57604036600319011261015d576113be602435600435611781565b6040518091602080830160208452825180915260206040850193019160005b8281106113ec57505050500390f35b8351855286955093810193928101926001016113dd565b3461015d57604036600319011261015d576101bf6004356114226114ff565b9080600052600060205261143d600160406000200154611860565b611886565b3461015d57602036600319011261015d5760043560005260006020526020600160406000200154604051908152f35b3461015d57600036600319011261015d5760206040517f442a94f1a1fac79af32856af2a64f63648cfa2ef3b98610a5bb7cbec4cee69858152f35b3461015d57602036600319011261015d576004359063ffffffff60e01b821680920361015d57602091637965db0b60e01b81149081156114ee575b5015158152f35b6301ffc9a760e01b149050836114e7565b602435906001600160a01b038216820361015d57565b919082519283825260005b848110611541575050826000602080949584010152601f8019910116010190565b602081830181015184830182015201611520565b95949390926115869260809460018060a01b031688526020880152604087015260a0606087015260a0860190611515565b930152565b60a0810190811067ffffffffffffffff82111761069057604052565b90601f8019910116810190811067ffffffffffffffff82111761069057604052565b81601f8201121561015d5780359067ffffffffffffffff821161069057604051926115fe601f8401601f1916602001856115a7565b8284526020838301011161015d57816000926020809301838601378301015290565b60055481101561165a5760059081600052027f036b6384b5eca791c62761152d0c79bb0604c104a5fb6f4eb0703f3154bb3db00190600090565b634e487b7160e01b600052603260045260246000fd5b90600182811c921680156116a0575b602083101461168a57565b634e487b7160e01b600052602260045260246000fd5b91607f169161167f565b906040519182600082546116bd81611670565b9081845260209460019160018116908160001461172d57506001146116ee575b5050506116ec925003836115a7565b565b600090815285812095935091905b8183106117155750506116ec93508201013880806116dd565b855488840185015294850194879450918301916116fc565b925050506116ec94925060ff191682840152151560051b8201013880806116dd565b67ffffffffffffffff81116106905760051b60200190565b919082018092116105d857565b919082039182116105d857565b906005906005549081841015611833576117af916117a0859283611767565b9080821161182b575b50611774565b6117b88161174f565b926117c660405194856115a7565b8184526117d28261174f565b602090601f1901368683013760009160005b8481106117f45750505050505090565b6117fe8183611767565b87518210156118175781871b88018401526001016117e4565b634e487b7160e01b85526032600452602485fd5b9050386117a9565b505050506040516020810181811067ffffffffffffffff8211176106905760405260008152600036813790565b80600052600060205260406000203360005260205260ff60406000205416156107425750565b9060009180835282602052604083209160018060a01b03169182845260205260ff604084205416156000146118ff57808352826020526040832082845260205260408320600160ff198254161790557f2f8788117e7eff1d82e926ec794901d17c78024a50270940304540a733656f0d339380a4600190565b505090565b9060009180835282602052604083209160018060a01b03169182845260205260ff6040842054166000146118ff5780835282602052604083208284526020526040832060ff1981541690557ff6391f5c32d9c69d2a47ea670b442974b53935d1edc7fd64eb21e047a839171b339380a4600190565b60001981146105d85760010190565b818110611993575050565b60008155600101611988565b9190601f81116119ae57505050565b6116ec926000526020600020906020601f840160051c830193106119da575b601f0160051c0190611988565b90915081906119cd565b90808214611ac4576119f68154611670565b9067ffffffffffffffff821161069057611a1a82611a148554611670565b8561199f565b600090601f8311600114611a5957611a4a929160009183611a4e5750508160011b916000199060031b1c19161790565b9055565b015490503880610381565b815260208082208483528183209291601f1985169083905b828210611aab575050908460019594939210611a92575b505050811b019055565b015460001960f88460031b161c19169055388080611a88565b8495819295850154815560018091019601940190611a71565b505056fea2646970667358221220e043c7cb6126b84c874361fc5c069c60de294c822d29fdd9fdb2a1d97079d04264736f6c634300081800332f8788117e7eff1d82e926ec794901d17c78024a50270940304540a733656f0d",
  "linkReferences": {},
  "deployedLinkReferences": {}
}