{
  "_format": "hh-sol-artifact-1",
  "contractName": "ThaliumOracle",
  "sourceName": "contracts/ThaliumOracle.sol",
  "abi": [
    {
      "inputs": [
        {
          "internalType": "address",
          "name": "defaultAdmin",
          "type": "address"
        },
        {
          "internalType": "address",
          "name": "oracleAdmin",
          "type": "address"
        },
        {
          "internalType": "address",
          "name": "priceUpdater",
          "type": "address"
        }
      ],
      "stateMutability": "nonpayable",
      "type": "constructor"
    },
    {
      "inputs": [],
      "name": "AccessControlBadConfirmation",
      "type": "error"
    },
    {
      "inputs": [
        {
          "internalType": "address",
          "name": "account",
          "type": "address"
        },
        {
          "internalType": "bytes32",
          "name": "neededRole",
          "type": "bytes32"
        }
      ],
      "name": "AccessControlUnauthorizedAccount",
      "type": "error"
    },
    {
      "inputs": [],
      "name": "EnforcedPause",
      "type": "error"
    },
    {
      "inputs": [],
      "name": "ExpectedPause",
      "type": "error"
    },
    {
      "anonymous": false,
      "inputs": [
        {
          "indexed": true,
          "internalType": "bytes32",
          "name": "symbol",
          "type": "bytes32"
        }
      ],
      "name": "CircuitBreakerReset",
      "type": "event"
    },
    {
      "anonymous": false,
      "inputs": [
        {
          "indexed": true,
          "internalType": "bytes32",
          "name": "symbol",
          "type": "bytes32"
        },
        {
          "indexed": false,
          "internalType": "uint256",
          "name": "oldPrice",
          "type": "uint256"
        },
        {
          "indexed": false,
          "internalType": "uint256",
          "name": "newPrice",
          "type": "uint256"
        }
      ],
      "name": "CircuitBreakerTriggered",
      "type": "event"
    },
    {
      "anonymous": false,
      "inputs": [
        {
          "indexed": true,
          "internalType": "address",
          "name": "pauser",
          "type": "address"
        }
      ],
      "name": "EmergencyPaused",
      "type": "event"
    },
    {
      "anonymous": false,
      "inputs": [
        {
          "indexed": true,
          "internalType": "bytes32",
          "name": "symbol",
          "type": "bytes32"
        },
        {
          "indexed": false,
          "internalType": "uint256",
          "name": "price",
          "type": "uint256"
        }
      ],
      "name": "EmergencyPriceSet",
      "type": "event"
    },
    {
      "anonymous": false,
      "inputs": [
        {
          "indexed": true,
          "internalType": "address",
          "name": "unpauser",
          "type": "address"
        }
      ],
      "name": "EmergencyUnpaused",
      "type": "event"
    },
    {
      "anonymous": false,
      "inputs": [
        {
          "indexed": false,
          "internalType": "address",
          "name": "account",
          "type": "address"
        }
      ],
      "name": "Paused",
      "type": "event"
    },
    {
      "anonymous": false,
      "inputs": [
        {
          "indexed": true,
          "internalType": "bytes32",
          "name": "symbol",
          "type": "bytes32"
        },
        {
          "indexed": false,
          "internalType": "uint256",
          "name": "price",
          "type": "uint256"
        },
        {
          "indexed": true,
          "internalType": "address",
          "name": "updater",
          "type": "address"
        },
        {
          "indexed": false,
          "internalType": "bool",
          "name": "isEmergency",
          "type": "bool"
        }
      ],
      "name": "PriceUpdated",
      "type": "event"
    },
    {
      "anonymous": false,
      "inputs": [
        {
          "indexed": true,
          "internalType": "bytes32",
          "name": "role",
          "type": "bytes32"
        },
        {
          "indexed": true,
          "internalType": "bytes32",
          "name": "previousAdminRole",
          "type": "bytes32"
        },
        {
          "indexed": true,
          "internalType": "bytes32",
          "name": "newAdminRole",
          "type": "bytes32"
        }
      ],
      "name": "RoleAdminChanged",
      "type": "event"
    },
    {
      "anonymous": false,
      "inputs": [
        {
          "indexed": true,
          "internalType": "bytes32",
          "name": "role",
          "type": "bytes32"
        },
        {
          "indexed": true,
          "internalType": "address",
          "name": "account",
          "type": "address"
        },
        {
          "indexed": true,
          "internalType": "address",
          "name": "sender",
          "type": "address"
        }
      ],
      "name": "RoleGranted",
      "type": "event"
    },
    {
      "anonymous": false,
      "inputs": [
        {
          "indexed": true,
          "internalType": "bytes32",
          "name": "role",
          "type": "bytes32"
        },
        {
          "indexed": true,
          "internalType": "address",
          "name": "account",
          "type": "address"
        },
        {
          "indexed": true,
          "internalType": "address",
          "name": "sender",
          "type": "address"
        }
      ],
      "name": "RoleRevoked",
      "type": "event"
    },
    {
      "anonymous": false,
      "inputs": [
        {
          "indexed": true,
          "internalType": "bytes32",
          "name": "symbol",
          "type": "bytes32"
        }
      ],
      "name": "SymbolAdded",
      "type": "event"
    },
    {
      "anonymous": false,
      "inputs": [
        {
          "indexed": true,
          "internalType": "bytes32",
          "name": "symbol",
          "type": "bytes32"
        }
      ],
      "name": "SymbolRemoved",
      "type": "event"
    },
    {
      "anonymous": false,
      "inputs": [
        {
          "indexed": false,
          "internalType": "address",
          "name": "account",
          "type": "address"
        }
      ],
      "name": "Unpaused",
      "type": "event"
    },
    {
      "inputs": [],
      "name": "CIRCUIT_BREAKER_THRESHOLD",
      "outputs": [
        {
          "internalType": "uint256",
          "name": "",
          "type": "uint256"
        }
      ],
      "stateMutability": "view",
      "type": "function"
    },
    {
      "inputs": [],
      "name": "DEFAULT_ADMIN_ROLE",
      "outputs": [
        {
          "internalType": "bytes32",
          "name": "",
          "type": "bytes32"
        }
      ],
      "stateMutability": "view",
      "type": "function"
    },
    {
      "inputs": [],
      "name": "EMERGENCY_PRICE_VALIDITY",
      "outputs": [
        {
          "internalType": "uint256",
          "name": "",
          "type": "uint256"
        }
      ],
      "stateMutability": "view",
      "type": "function"
    },
    {
      "inputs": [],
      "name": "MAX_PRICE_AGE",
      "outputs": [
        {
          "internalType": "uint256",
          "name": "",
          "type": "uint256"
        }
      ],
      "stateMutability": "view",
      "type": "function"
    },
    {
      "inputs": [],
      "name": "ORACLE_ADMIN_ROLE",
      "outputs": [
        {
          "internalType": "bytes32",
          "name": "",
          "type": "bytes32"
        }
      ],
      "stateMutability": "view",
      "type": "function"
    },
    {
      "inputs": [],
      "name": "PRICE_UPDATER_ROLE",
      "outputs": [
        {
          "internalType": "bytes32",
          "name": "",
          "type": "bytes32"
        }
      ],
      "stateMutability": "view",
      "type": "function"
    },
    {
      "inputs": [
        {
          "internalType": "bytes32",
          "name": "symbol",
          "type": "bytes32"
        }
      ],
      "name": "addSymbol",
      "outputs": [],
      "stateMutability": "nonpayable",
      "type": "function"
    },
    {
      "inputs": [
        {
          "internalType": "bytes32",
          "name": "symbol",
          "type": "bytes32"
        }
      ],
      "name": "getEmergencyPriceInfo",
      "outputs": [
        {
          "internalType": "uint256",
          "name": "emergencyPrice",
          "type": "uint256"
        },
        {
          "internalType": "uint256",
          "name": "lastUpdate",
          "type": "uint256"
        },
        {
          "internalType": "bool",
          "name": "isValid",
          "type": "bool"
        }
      ],
      "stateMutability": "view",
      "type": "function"
    },
    {
      "inputs": [
        {
          "internalType": "bytes32",
          "name": "symbol",
          "type": "bytes32"
        }
      ],
      "name": "getPrice",
      "outputs": [
        {
          "internalType": "uint256",
          "name": "",
          "type": "uint256"
        }
      ],
      "stateMutability": "view",
      "type": "function"
    },
    {
      "inputs": [
        {
          "internalType": "bytes32",
          "name": "symbol",
          "type": "bytes32"
        }
      ],
      "name": "getPriceData",
      "outputs": [
        {
          "internalType": "uint256",
          "name": "price",
          "type": "uint256"
        },
        {
          "internalType": "uint256",
          "name": "timestamp",
          "type": "uint256"
        },
        {
          "internalType": "uint256",
          "name": "blockNumber",
          "type": "uint256"
        },
        {
          "internalType": "address",
          "name": "updater",
          "type": "address"
        },
        {
          "internalType": "bool",
          "name": "isEmergency",
          "type": "bool"
        },
        {
          "internalType": "bool",
          "name": "circuitBreakerActive",
          "type": "bool"
        }
      ],
      "stateMutability": "view",
      "type": "function"
    },
    {
      "inputs": [
        {
          "internalType": "bytes32[]",
          "name": "symbols",
          "type": "bytes32[]"
        }
      ],
      "name": "getPrices",
      "outputs": [
        {
          "internalType": "uint256[]",
          "name": "",
          "type": "uint256[]"
        }
      ],
      "stateMutability": "view",
      "type": "function"
    },
    {
      "inputs": [
        {
          "internalType": "bytes32",
          "name": "role",
          "type": "bytes32"
        }
      ],
      "name": "getRoleAdmin",
      "outputs": [
        {
          "internalType": "bytes32",
          "name": "",
          "type": "bytes32"
        }
      ],
      "stateMutability": "view",
      "type": "function"
    },
    {
      "inputs": [],
      "name": "getSupportedSymbols",
      "outputs": [
        {
          "internalType": "bytes32[]",
          "name": "",
          "type": "bytes32[]"
        }
      ],
      "stateMutability": "view",
      "type": "function"
    },
    {
      "inputs": [
        {
          "internalType": "bytes32",
          "name": "role",
          "type": "bytes32"
        },
        {
          "internalType": "address",
          "name": "account",
          "type": "address"
        }
      ],
      "name": "grantRole",
      "outputs": [],
      "stateMutability": "nonpayable",
      "type": "function"
    },
    {
      "inputs": [
        {
          "internalType": "bytes32",
          "name": "role",
          "type": "bytes32"
        },
        {
          "internalType": "address",
          "name": "account",
          "type": "address"
        }
      ],
      "name": "hasRole",
      "outputs": [
        {
          "internalType": "bool",
          "name": "",
          "type": "bool"
        }
      ],
      "stateMutability": "view",
      "type": "function"
    },
    {
      "inputs": [
        {
          "internalType": "bytes32",
          "name": "symbol",
          "type": "bytes32"
        }
      ],
      "name": "isPriceFresh",
      "outputs": [
        {
          "internalType": "bool",
          "name": "",
          "type": "bool"
        }
      ],
      "stateMutability": "view",
      "type": "function"
    },
    {
      "inputs": [],
      "name": "pause",
      "outputs": [],
      "stateMutability": "nonpayable",
      "type": "function"
    },
    {
      "inputs": [],
      "name": "paused",
      "outputs": [
        {
          "internalType": "bool",
          "name": "",
          "type": "bool"
        }
      ],
      "stateMutability": "view",
      "type": "function"
    },
    {
      "inputs": [
        {
          "internalType": "bytes32",
          "name": "",
          "type": "bytes32"
        }
      ],
      "name": "priceFeeds",
      "outputs": [
        {
          "internalType": "bytes32",
          "name": "symbol",
          "type": "bytes32"
        },
        {
          "components": [
            {
              "internalType": "uint256",
              "name": "price",
              "type": "uint256"
            },
            {
              "internalType": "uint256",
              "name": "timestamp",
              "type": "uint256"
            },
            {
              "internalType": "uint256",
              "name": "blockNumber",
              "type": "uint256"
            },
            {
              "internalType": "address",
              "name": "updater",
              "type": "address"
            },
            {
              "internalType": "bool",
              "name": "isEmergency",
              "type": "bool"
            }
          ],
          "internalType": "struct ThaliumOracle.PriceData",
          "name": "primary",
          "type": "tuple"
        },
        {
          "components": [
            {
              "internalType": "uint256",
              "name": "price",
              "type": "uint256"
            },
            {
              "internalType": "uint256",
              "name": "timestamp",
              "type": "uint256"
            },
            {
              "internalType": "uint256",
              "name": "blockNumber",
              "type": "uint256"
            },
            {
              "internalType": "address",
              "name": "updater",
              "type": "address"
            },
            {
              "internalType": "bool",
              "name": "isEmergency",
              "type": "bool"
            }
          ],
          "internalType": "struct ThaliumOracle.PriceData",
          "name": "secondary",
          "type": "tuple"
        },
        {
          "internalType": "uint256",
          "name": "emergencyPrice",
          "type": "uint256"
        },
        {
          "internalType": "uint256",
          "name": "lastEmergencyUpdate",
          "type": "uint256"
        },
        {
          "internalType": "bool",
          "name": "circuitBreaker",
          "type": "bool"
        }
      ],
      "stateMutability": "view",
      "type": "function"
    },
    {
      "inputs": [
        {
          "internalType": "bytes32",
          "name": "symbol",
          "type": "bytes32"
        }
      ],
      "name": "removeSymbol",
      "outputs": [],
      "stateMutability": "nonpayable",
      "type": "function"
    },
    {
      "inputs": [
        {
          "internalType": "bytes32",
          "name": "role",
          "type": "bytes32"
        },
        {
          "internalType": "address",
          "name": "callerConfirmation",
          "type": "address"
        }
      ],
      "name": "renounceRole",
      "outputs": [],
      "stateMutability": "nonpayable",
      "type": "function"
    },
    {
      "inputs": [
        {
          "internalType": "bytes32",
          "name": "symbol",
          "type": "bytes32"
        }
      ],
      "name": "resetCircuitBreaker",
      "outputs": [],
      "stateMutability": "nonpayable",
      "type": "function"
    },
    {
      "inputs": [
        {
          "internalType": "bytes32",
          "name": "role",
          "type": "bytes32"
        },
        {
          "internalType": "address",
          "name": "account",
          "type": "address"
        }
      ],
      "name": "revokeRole",
      "outputs": [],
      "stateMutability": "nonpayable",
      "type": "function"
    },
    {
      "inputs": [
        {
          "internalType": "bytes32",
          "name": "symbol",
          "type": "bytes32"
        },
        {
          "internalType": "uint256",
          "name": "price",
          "type": "uint256"
        }
      ],
      "name": "setEmergencyPrice",
      "outputs": [],
      "stateMutability": "nonpayable",
      "type": "function"
    },
    {
      "inputs": [
        {
          "internalType": "uint256",
          "name": "",
          "type": "uint256"
        }
      ],
      "name": "supportedSymbols",
      "outputs": [
        {
          "internalType": "bytes32",
          "name": "",
          "type": "bytes32"
        }
      ],
      "stateMutability": "view",
      "type": "function"
    },
    {
      "inputs": [
        {
          "internalType": "bytes4",
          "name": "interfaceId",
          "type": "bytes4"
        }
      ],
      "name": "supportsInterface",
      "outputs": [
        {
          "internalType": "bool",
          "name": "",
          "type": "bool"
        }
      ],
      "stateMutability": "view",
      "type": "function"
    },
    {
      "inputs": [],
      "name": "unpause",
      "outputs": [],
      "stateMutability": "nonpayable",
      "type": "function"
    },
    {
      "inputs": [
        {
          "internalType": "bytes32",
          "name": "symbol",
          "type": "bytes32"
        },
        {
          "internalType": "uint256",
          "name": "price",
          "type": "uint256"
        },
        {
          "internalType": "bool",
          "name": "isPrimary",
          "type": "bool"
        }
      ],
      "name": "updatePrice",
      "outputs": [],
      "stateMutability": "nonpayable",
      "type": "function"
    }
  ],
  "bytecode": "0x6080346200025757601f62001a0438819003918201601f1916830191906001600160401b0383118484101762000151578160609285926040958652833981010312620002575762000050826200025c565b6020926200006d83620000658684016200025c565b92016200025c565b916001600160a01b0380821615620002075780831615620001b7578316156200016757620000b39291620000a5620000ac9262000271565b50620002f1565b5062000393565b5060035468010000000000000000811015620001515760018101806003558110156200013b57600260009360038552631554d11560e21b80938287200155828552527f7719c3e3f20f96c9edb047d6d5320458087e7348ecae12a7a5dcf60228e2247682842092519380a26305f5e1006009820155600a429101556115b39081620004318239f35b634e487b7160e01b600052603260045260246000fd5b634e487b7160e01b600052604160045260246000fd5b835162461bcd60e51b8152600481018690526024808201527f5468616c69756d4f7261636c653a20496e76616c69642070726963652075706460448201526330ba32b960e11b6064820152608490fd5b845162461bcd60e51b815260048101879052602360248201527f5468616c69756d4f7261636c653a20496e76616c6964206f7261636c6520616460448201526236b4b760e91b6064820152608490fd5b845162461bcd60e51b8152600481018790526024808201527f5468616c69756d4f7261636c653a20496e76616c69642064656661756c7420616044820152633236b4b760e11b6064820152608490fd5b600080fd5b51906001600160a01b03821682036200025757565b6001600160a01b031660008181527fad3228b676f7d3cd4284a5443f17f1962b36e491b30a40b2405849e597ba5fb5602052604081205490919060ff16620002ed57818052816020526040822081835260205260408220600160ff198254161790553391600080516020620019e48339815191528180a4600190565b5090565b6001600160a01b031660008181527f0182b0b5e08b141e693502edc4d7bcb5b504fb073ca0e6ed532a1d3ae8b27faa60205260408120549091907fc307c44629779eb8fc0b85f224c3d22f5876a6c84de0ee42d481eb7814f0d3a89060ff166200038e57808352826020526040832082845260205260408320600160ff19825416179055600080516020620019e4833981519152339380a4600190565b505090565b6001600160a01b031660008181527fa1f9a07a38f9bd607bcb708ae5358a1ce4e79f14575e0c448403e6797e53e60760205260408120549091907fd96ba01d6560c2ab35f2940dd8d70c5f5fe06236c72674237120515918198fb09060ff166200038e57808352826020526040832082845260205260408320600160ff19825416179055600080516020620019e4833981519152339380a460019056fe608060408181526004918236101561001657600080fd5b600092833560e01c91826301ffc9a714610df2575081630ca55cd714610dd65781631b71a9db14610c6b578163248a9ca314610c4157816326ee483614610aca578163289e029b146109715781632f2ff15d1461095357816331d98b3f1461092c57816336568abe146108f15781633f4ba83a1461086257816343fa6211146107de5781635c975abb146107ba578163603016c9146107245781638003a94f146106e9578163828323f7146106c05781638456cb591461064157816391d1485414610607578163932d68a6146105ce5781639d7f7e86146105b0578163a217fddf14610595578163a50966b014610577578163ac592cda14610507578163b84b7ddb1461043f578163c6c3f71e14610353578163ce1c0e4d1461029d578163d547741f14610268578163e6271b5514610196575063fb8d81011461015957600080fd5b34610192578160031936011261019257602090517fd96ba01d6560c2ab35f2940dd8d70c5f5fe06236c72674237120515918198fb08152f35b5080fd5b905034610264576020366003190112610264578035916101b4611229565b6101c56101c084611303565b610f51565b8284526002602052600b818520019182549160ff83161561020f57505060ff191690557f3e5f7de6be8ddca2fd79ac64325c880be7705bfbe277a0191d49bf49b2a357a98280a280f35b906020608492519162461bcd60e51b8352820152602960248201527f5468616c69756d4f7261636c653a204369726375697420627265616b6572206e6044820152686f742061637469766560b81b6064820152fd5b8280fd5b5050346101925760016102999161029461028136610e45565b93909283875286602052862001546112dd565b611431565b5080f35b8284346103505780600319360112610350579080519182906003549182855260208095018093600384527fc2575a0e9e593c00f959f8c92f12db2869c3395a3b0502d05e2516446f71f85b90845b81811061033c5750505081610301910382610ebd565b83519485948186019282875251809352850193925b82811061032557505050500390f35b835185528695509381019392810192600101610316565b8254845292880192600192830192016102eb565b80fd5b905034610264576020366003190112610264576101c09282913581526002602052209081549161038560018201610ef5565b61042961039460058401610ef5565b6103eb60098501549360ff600b600a88015497015416965197885260208801906080809180518452602081015160208501526040810151604085015260018060a01b03606082015116606085015201511515910152565b805160c0870152602081015160e0870152604081015161010087015260608101516001600160a01b0316610120870152608001511515610140860152565b61016084015261018083015215156101a0820152f35b90503461026457816003193601126102645780359160243591610460611229565b82156104b657507fd1684c4b64e90fb3e676115e6f0f19fe1ce400bf8a9d6855ff3a42ccac1b5921916020916104986101c086611303565b84865260028352808620826009820155600a4291015551908152a280f35b6020608492519162461bcd60e51b8352820152602660248201527f5468616c69756d4f7261636c653a20496e76616c696420656d657267656e637960448201526520707269636560d01b6064820152fd5b8383346101925760203660031901126101925782356105286101c082611303565b8252600260205280822091600a8301549262093a8084019182851161056457506060945060090154928251938452602084015242111590820152f35b634e487b7160e01b815260118652602490fd5b5050346101925781600319360112610192576020905162093a808152f35b50503461019257816003193601126101925751908152602090f35b50503461019257816003193601126101925760209051620151808152f35b90503461026457602036600319011261026457359160035483101561035057506105f9602092610e70565b90549060031b1c9051908152f35b5050346101925760ff8160209361061d36610e45565b9082528186528282206001600160a01b039091168252855220549151911615158152f35b50503461019257816003193601126101925760207f62e78cea01bee320cd4e420270b5ea74000d11b0c9f74754ebdbfc544b05a2589161067f6112a3565b6106876114d5565b600160ff198154161760015551338152a1337fb8fad2fa0ed7a383e747c309ef2c4391d7b65592a48893e57ccc1fab707914568280a280f35b82843461035057602036600319011261035057506106e0602092356111b1565b90519015158152f35b505034610192578160031936011261019257602090517fc307c44629779eb8fc0b85f224c3d22f5876a6c84de0ee42d481eb7814f0d3a88152f35b8391503461019257606036600319011261019257604435908115158203610264577fd96ba01d6560c2ab35f2940dd8d70c5f5fe06236c72674237120515918198fb08084528360205284842033855260205260ff85852054161561079d57509061079a916107906114d5565b6024359035611054565b80f35b6044925084519163e2517d3f60e01b835233908301526024820152fd5b50503461019257816003193601126101925760209060ff6001541690519015158152f35b9050346102645760203660031901126102645760c0928291356108036101c082611303565b81526002602052209060ff610817836114a6565b9283549360018101549383600b6003600285015494015494015416948151968752602087015285015260018060a01b038116606085015260a01c1615156080830152151560a0820152f35b90503461026457826003193601126102645761087c6112a3565b6001549060ff8216156108e3575060ff1916600155513381527f5db9ee0a495bf2e6ff9c91a7834c1ba4fdd244a5e8aa4e537bd38aeae4b073aa90602090a1337ff5cbf596165cc457b2cd92e8d8450827ee314968160a5696402d75766fc52caf8280a280f35b8251638dfc202b60e01b8152fd5b8383346101925761090136610e45565b91336001600160a01b0384160361091d57509061029991611431565b5163334bd91960e11b81528490fd5b828434610350576020366003190112610350575061094c60209235610fc1565b9051908152f35b5050346101925760016102999161096c61028136610e45565b61134f565b9190503461026457602036600319011261026457813591610990611229565b61099983611303565b610a7c578215610a3a576003549068010000000000000000821015610a2757506109e46109cd826001869401600355610e70565b819391549060031b91821b91600019901b19161790565b9055818352600260205282206305f5e1006009820155600a429101557f7719c3e3f20f96c9edb047d6d5320458087e7348ecae12a7a5dcf60228e224768280a280f35b634e487b7160e01b855260419052602484fd5b6020606492519162461bcd60e51b8352820152601d60248201527f5468616c69756d4f7261636c653a20496e76616c69642073796d626f6c0000006044820152fd5b6020608492519162461bcd60e51b83528201526024808201527f5468616c69756d4f7261636c653a2053796d626f6c20616c72656164792065786044820152636973747360e01b6064820152fd5b83915034610192576020806003193601126102645781359267ffffffffffffffff80851161019257366023860112156101925784840135908111610192576024906005953660248360051b83010111610c3d57610b2c82989796949598610fa9565b93610b3988519586610ebd565b828552610b4583610fa9565b858a019790601f1901368937865b848110610b9b5750505050505083519485948186019282875251809352850193925b828110610b8457505050500390f35b835185528695509381019392810192600101610b75565b89516331d98b3f60e01b815281831b858101880135858301529a9b999a9799989789828981305afa918215610c33578992610c00575b508a51831015610bee578a01890152969998979596600101610b53565b634e487b7160e01b8952603285528789fd5b9091508981813d8311610c2c575b610c188183610ebd565b81010312610c285751908d610bd1565b8880fd5b503d610c0e565b8d513d8b823e3d90fd5b8380fd5b90503461026457602036600319011261026457816020936001923581528085522001549051908152f35b9190503461026457602036600319011261026457813590610c8a611229565b610c966101c083611303565b835b60038054908682841015610dc8575084610cb184610e70565b905490831b1c14610cc6575050600101610c98565b91600095919394951993848101908111610db5576109cd610ce9610cf592610e70565b905490861b1c92610e70565b90558154908115610da257509185939181600b940191610d1483610e70565b9091825491841b1b19169055555b83835260026020528220828155610d4e6001820160036000918281558260018201558260028201550155565b610d6d6005820160036000918281558260018201558260028201550155565b82600982015582600a82015501557f88d7a2d72d05315fff92a3e2fcda7475e6d992d2f19f14f1149836e6aedc97048280a280f35b634e487b7160e01b875260319052602486fd5b634e487b7160e01b885260118352602488fd5b949550505050600b90610d22565b5050346101925781600319360112610192576020905160328152f35b849134610264576020366003190112610264573563ffffffff60e01b81168091036102645760209250637965db0b60e01b8114908115610e34575b5015158152f35b6301ffc9a760e01b14905083610e2d565b6040906003190112610e6b57600435906024356001600160a01b0381168103610e6b5790565b600080fd5b600354811015610ea75760036000527fc2575a0e9e593c00f959f8c92f12db2869c3395a3b0502d05e2516446f71f85b0190600090565b634e487b7160e01b600052603260045260246000fd5b90601f8019910116810190811067ffffffffffffffff821117610edf57604052565b634e487b7160e01b600052604160045260246000fd5b9060405160a0810181811067ffffffffffffffff821117610edf5760409081528354825260018401546020830152600284015490820152600392909201546001600160a01b038116606084015260a01c60ff1615156080830152565b15610f5857565b60405162461bcd60e51b815260206004820152602360248201527f5468616c69756d4f7261636c653a2053796d626f6c206e6f7420737570706f726044820152621d195960ea1b6064820152608490fd5b67ffffffffffffffff8111610edf5760051b60200190565b610fcd6101c082611303565b6000526002602052604060002060ff600b8201541661104d57610fef906113cd565b8015610ff85790565b60405162461bcd60e51b815260206004820152602760248201527f5468616c69756d4f7261636c653a204e6f2076616c696420707269636520617660448201526661696c61626c6560c81b6064820152608490fd5b6009015490565b9091821561116c576110686101c083611303565b816000526002602052604060002090600b820180549060ff821615611104575b5050906003916000146110fc576001015b83815542600182015543600282015501805460ff60a01b193316906affffffffffffffffffffff60a81b16179055604051918252600060208301527f876fada70d1f21778d08657b2f854611cc26b9d9011c08cf90b99458b85c8bf460403393a3565b600501611099565b61110d846113cd565b918261111a575b50611088565b603261112688856114f3565b1061111457604094507f87d09f8d113537ba54657d441869c64eaabd7d0ab7790d880eada2e451379822959692935060019060ff191617905582519182526020820152a2565b60405162461bcd60e51b815260206004820152601c60248201527f5468616c69756d4f7261636c653a20496e76616c6964207072696365000000006044820152606490fd5b6111ba81611303565b15611223576000526002602052604060002060ff600b8201541661121d576111e36001916114a6565b015480151590816111f2575090565b90506201518081018091116112075742111590565b634e487b7160e01b600052601160045260246000fd5b50600190565b50600090565b3360009081527f0182b0b5e08b141e693502edc4d7bcb5b504fb073ca0e6ed532a1d3ae8b27faa60205260409020547fc307c44629779eb8fc0b85f224c3d22f5876a6c84de0ee42d481eb7814f0d3a89060ff16156112855750565b6044906040519063e2517d3f60e01b82523360048301526024820152fd5b3360009081527fad3228b676f7d3cd4284a5443f17f1962b36e491b30a40b2405849e597ba5fb5602052604081205460ff16156112855750565b80600052600060205260406000203360005260205260ff60406000205416156112855750565b60009060038054925b83811061131c5750505050600090565b8261132682610e70565b905490841b1c146113395760010161130c565b50505050600190565b9190820391821161120757565b9060009180835282602052604083209160018060a01b03169182845260205260ff604084205416156000146113c857808352826020526040832082845260205260408320600160ff198254161790557f2f8788117e7eff1d82e926ec794901d17c78024a50270940304540a733656f0d339380a4600190565b505090565b600181016113da81611539565b61142b5750600581016113ec81611539565b61142b5750600981015490811515908161140f575b5061140c5750600090565b90565b600a9150015462093a8081018091116112075742111538611401565b90505490565b9060009180835282602052604083209160018060a01b03169182845260205260ff6040842054166000146113c85780835282602052604083208284526020526040832060ff1981541690557ff6391f5c32d9c69d2a47ea670b442974b53935d1edc7fd64eb21e047a839171b339380a4600190565b60018101906114b482611539565b6114d1576005016114c481611539565b6114cc575090565b905090565b5090565b60ff600154166114e157565b60405163d93c066560e01b8152600490fd5b908115611532578181811115611524579061150d91611342565b606481029080820460641490151715611207570490565b61152d91611342565b61150d565b5050600090565b6001810154908115159182611563575b5081611553575090565b60ff91506003015460a01c161590565b90915062015180810180911161120757421115903861154956fea2646970667358221220bcc81031d7b2208817adcb0b460a3d7a5f5cb72aee3b1e6bb53bf5212e6634bd64736f6c634300081800332f8788117e7eff1d82e926ec794901d17c78024a50270940304540a733656f0d",
  "linkReferences": {},
  "deployedLinkReferences": {}
}