{
  "_format": "hh-sol-artifact-1",
  "contractName": "ThaliumBridge",
  "sourceName": "contracts/ThaliumBridge.sol",
  "abi": [
    {
      "inputs": [
        {
          "internalType": "address",
          "name": "thalTokenAddress",
          "type": "address"
        },
        {
          "internalType": "address",
          "name": "defaultAdmin",
          "type": "address"
        },
        {
          "internalType": "address",
          "name": "bridgeAdmin",
          "type": "address"
        },
        {
          "internalType": "address[]",
          "name": "initialValidators",
          "type": "address[]"
        }
      ],
      "stateMutability": "nonpayable",
      "type": "constructor"
    },
    {
      "inputs": [],
      "name": "AccessControlBadConfirmation",
      "type": "error"
    },
    {
      "inputs": [
        {
          "internalType": "address",
          "name": "account",
          "type": "address"
        },
        {
          "internalType": "bytes32",
          "name": "neededRole",
          "type": "bytes32"
        }
      ],
      "name": "AccessControlUnauthorizedAccount",
      "type": "error"
    },
    {
      "inputs": [],
      "name": "EnforcedPause",
      "type": "error"
    },
    {
      "inputs": [],
      "name": "ExpectedPause",
      "type": "error"
    },
    {
      "inputs": [],
      "name": "ReentrancyGuardReentrantCall",
      "type": "error"
    },
    {
      "inputs": [
        {
          "internalType": "address",
          "name": "token",
          "type": "address"
        }
      ],
      "name": "SafeERC20FailedOperation",
      "type": "error"
    },
    {
      "anonymous": false,
      "inputs": [
        {
          "indexed": false,
          "internalType": "uint256",
          "name": "newFee",
          "type": "uint256"
        }
      ],
      "name": "BridgeFeeUpdated",
      "type": "event"
    },
    {
      "anonymous": false,
      "inputs": [
        {
          "indexed": false,
          "internalType": "uint256",
          "name": "chainId",
          "type": "uint256"
        },
        {
          "indexed": false,
          "internalType": "bool",
          "name": "supported",
          "type": "bool"
        }
      ],
      "name": "ChainSupportUpdated",
      "type": "event"
    },
    {
      "anonymous": false,
      "inputs": [
        {
          "indexed": true,
          "internalType": "address",
          "name": "pauser",
          "type": "address"
        }
      ],
      "name": "EmergencyPaused",
      "type": "event"
    },
    {
      "anonymous": false,
      "inputs": [
        {
          "indexed": true,
          "internalType": "address",
          "name": "unpauser",
          "type": "address"
        }
      ],
      "name": "EmergencyUnpaused",
      "type": "event"
    },
    {
      "anonymous": false,
      "inputs": [
        {
          "indexed": false,
          "internalType": "address",
          "name": "account",
          "type": "address"
        }
      ],
      "name": "Paused",
      "type": "event"
    },
    {
      "anonymous": false,
      "inputs": [
        {
          "indexed": true,
          "internalType": "bytes32",
          "name": "role",
          "type": "bytes32"
        },
        {
          "indexed": true,
          "internalType": "bytes32",
          "name": "previousAdminRole",
          "type": "bytes32"
        },
        {
          "indexed": true,
          "internalType": "bytes32",
          "name": "newAdminRole",
          "type": "bytes32"
        }
      ],
      "name": "RoleAdminChanged",
      "type": "event"
    },
    {
      "anonymous": false,
      "inputs": [
        {
          "indexed": true,
          "internalType": "bytes32",
          "name": "role",
          "type": "bytes32"
        },
        {
          "indexed": true,
          "internalType": "address",
          "name": "account",
          "type": "address"
        },
        {
          "indexed": true,
          "internalType": "address",
          "name": "sender",
          "type": "address"
        }
      ],
      "name": "RoleGranted",
      "type": "event"
    },
    {
      "anonymous": false,
      "inputs": [
        {
          "indexed": true,
          "internalType": "bytes32",
          "name": "role",
          "type": "bytes32"
        },
        {
          "indexed": true,
          "internalType": "address",
          "name": "account",
          "type": "address"
        },
        {
          "indexed": true,
          "internalType": "address",
          "name": "sender",
          "type": "address"
        }
      ],
      "name": "RoleRevoked",
      "type": "event"
    },
    {
      "anonymous": false,
      "inputs": [
        {
          "indexed": true,
          "internalType": "bytes32",
          "name": "transferId",
          "type": "bytes32"
        },
        {
          "indexed": true,
          "internalType": "address",
          "name": "recipient",
          "type": "address"
        },
        {
          "indexed": false,
          "internalType": "uint256",
          "name": "amount",
          "type": "uint256"
        },
        {
          "indexed": false,
          "internalType": "uint256",
          "name": "sourceChainId",
          "type": "uint256"
        }
      ],
      "name": "TransferCompleted",
      "type": "event"
    },
    {
      "anonymous": false,
      "inputs": [
        {
          "indexed": true,
          "internalType": "bytes32",
          "name": "transferId",
          "type": "bytes32"
        },
        {
          "indexed": true,
          "internalType": "address",
          "name": "sender",
          "type": "address"
        },
        {
          "indexed": true,
          "internalType": "address",
          "name": "recipient",
          "type": "address"
        },
        {
          "indexed": false,
          "internalType": "uint256",
          "name": "amount",
          "type": "uint256"
        },
        {
          "indexed": false,
          "internalType": "uint256",
          "name": "targetChainId",
          "type": "uint256"
        }
      ],
      "name": "TransferInitiated",
      "type": "event"
    },
    {
      "anonymous": false,
      "inputs": [
        {
          "indexed": false,
          "internalType": "address",
          "name": "account",
          "type": "address"
        }
      ],
      "name": "Unpaused",
      "type": "event"
    },
    {
      "anonymous": false,
      "inputs": [
        {
          "indexed": true,
          "internalType": "address",
          "name": "validator",
          "type": "address"
        }
      ],
      "name": "ValidatorAdded",
      "type": "event"
    },
    {
      "anonymous": false,
      "inputs": [
        {
          "indexed": true,
          "internalType": "address",
          "name": "validator",
          "type": "address"
        }
      ],
      "name": "ValidatorRemoved",
      "type": "event"
    },
    {
      "inputs": [],
      "name": "BRIDGE_ADMIN_ROLE",
      "outputs": [
        {
          "internalType": "bytes32",
          "name": "",
          "type": "bytes32"
        }
      ],
      "stateMutability": "view",
      "type": "function"
    },
    {
      "inputs": [],
      "name": "DEFAULT_ADMIN_ROLE",
      "outputs": [
        {
          "internalType": "bytes32",
          "name": "",
          "type": "bytes32"
        }
      ],
      "stateMutability": "view",
      "type": "function"
    },
    {
      "inputs": [],
      "name": "MAX_VALIDATORS",
      "outputs": [
        {
          "internalType": "uint256",
          "name": "",
          "type": "uint256"
        }
      ],
      "stateMutability": "view",
      "type": "function"
    },
    {
      "inputs": [],
      "name": "MIN_VALIDATORS",
      "outputs": [
        {
          "internalType": "uint256",
          "name": "",
          "type": "uint256"
        }
      ],
      "stateMutability": "view",
      "type": "function"
    },
    {
      "inputs": [],
      "name": "TRANSFER_EXPIRY",
      "outputs": [
        {
          "internalType": "uint256",
          "name": "",
          "type": "uint256"
        }
      ],
      "stateMutability": "view",
      "type": "function"
    },
    {
      "inputs": [],
      "name": "VALIDATOR_ROLE",
      "outputs": [
        {
          "internalType": "bytes32",
          "name": "",
          "type": "bytes32"
        }
      ],
      "stateMutability": "view",
      "type": "function"
    },
    {
      "inputs": [
        {
          "internalType": "address",
          "name": "validator",
          "type": "address"
        }
      ],
      "name": "addValidator",
      "outputs": [],
      "stateMutability": "nonpayable",
      "type": "function"
    },
    {
      "inputs": [],
      "name": "bridgeFee",
      "outputs": [
        {
          "internalType": "uint256",
          "name": "",
          "type": "uint256"
        }
      ],
      "stateMutability": "view",
      "type": "function"
    },
    {
      "inputs": [
        {
          "internalType": "bytes32",
          "name": "transferId",
          "type": "bytes32"
        },
        {
          "internalType": "address",
          "name": "recipient",
          "type": "address"
        },
        {
          "internalType": "uint256",
          "name": "amount",
          "type": "uint256"
        },
        {
          "internalType": "uint256",
          "name": "sourceChainId",
          "type": "uint256"
        }
      ],
      "name": "completeTransfer",
      "outputs": [],
      "stateMutability": "nonpayable",
      "type": "function"
    },
    {
      "inputs": [],
      "name": "getBridgeStats",
      "outputs": [
        {
          "internalType": "uint256",
          "name": "totalTransferred_",
          "type": "uint256"
        },
        {
          "internalType": "uint256",
          "name": "totalFeesCollected_",
          "type": "uint256"
        },
        {
          "internalType": "uint256",
          "name": "bridgeFee_",
          "type": "uint256"
        },
        {
          "internalType": "uint256",
          "name": "validatorCount",
          "type": "uint256"
        },
        {
          "internalType": "uint256",
          "name": "requiredValidators_",
          "type": "uint256"
        }
      ],
      "stateMutability": "view",
      "type": "function"
    },
    {
      "inputs": [
        {
          "internalType": "bytes32",
          "name": "role",
          "type": "bytes32"
        }
      ],
      "name": "getRoleAdmin",
      "outputs": [
        {
          "internalType": "bytes32",
          "name": "",
          "type": "bytes32"
        }
      ],
      "stateMutability": "view",
      "type": "function"
    },
    {
      "inputs": [],
      "name": "getSupportedChains",
      "outputs": [
        {
          "internalType": "uint256[]",
          "name": "",
          "type": "uint256[]"
        }
      ],
      "stateMutability": "view",
      "type": "function"
    },
    {
      "inputs": [
        {
          "internalType": "bytes32",
          "name": "transferId",
          "type": "bytes32"
        }
      ],
      "name": "getTransferRequest",
      "outputs": [
        {
          "internalType": "address",
          "name": "sender",
          "type": "address"
        },
        {
          "internalType": "address",
          "name": "recipient",
          "type": "address"
        },
        {
          "internalType": "uint256",
          "name": "amount",
          "type": "uint256"
        },
        {
          "internalType": "uint256",
          "name": "sourceChainId",
          "type": "uint256"
        },
        {
          "internalType": "uint256",
          "name": "targetChainId",
          "type": "uint256"
        },
        {
          "internalType": "uint256",
          "name": "timestamp",
          "type": "uint256"
        },
        {
          "internalType": "bool",
          "name": "executed",
          "type": "bool"
        },
        {
          "internalType": "uint256",
          "name": "validatorCount",
          "type": "uint256"
        }
      ],
      "stateMutability": "view",
      "type": "function"
    },
    {
      "inputs": [],
      "name": "getValidators",
      "outputs": [
        {
          "internalType": "address[]",
          "name": "",
          "type": "address[]"
        }
      ],
      "stateMutability": "view",
      "type": "function"
    },
    {
      "inputs": [
        {
          "internalType": "bytes32",
          "name": "role",
          "type": "bytes32"
        },
        {
          "internalType": "address",
          "name": "account",
          "type": "address"
        }
      ],
      "name": "grantRole",
      "outputs": [],
      "stateMutability": "nonpayable",
      "type": "function"
    },
    {
      "inputs": [
        {
          "internalType": "bytes32",
          "name": "role",
          "type": "bytes32"
        },
        {
          "internalType": "address",
          "name": "account",
          "type": "address"
        }
      ],
      "name": "hasRole",
      "outputs": [
        {
          "internalType": "bool",
          "name": "",
          "type": "bool"
        }
      ],
      "stateMutability": "view",
      "type": "function"
    },
    {
      "inputs": [
        {
          "internalType": "address",
          "name": "recipient",
          "type": "address"
        },
        {
          "internalType": "uint256",
          "name": "amount",
          "type": "uint256"
        },
        {
          "internalType": "uint256",
          "name": "targetChainId",
          "type": "uint256"
        }
      ],
      "name": "initiateTransfer",
      "outputs": [
        {
          "internalType": "bytes32",
          "name": "",
          "type": "bytes32"
        }
      ],
      "stateMutability": "nonpayable",
      "type": "function"
    },
    {
      "inputs": [
        {
          "internalType": "uint256",
          "name": "chainId",
          "type": "uint256"
        }
      ],
      "name": "isChainSupported",
      "outputs": [
        {
          "internalType": "bool",
          "name": "",
          "type": "bool"
        }
      ],
      "stateMutability": "view",
      "type": "function"
    },
    {
      "inputs": [],
      "name": "pause",
      "outputs": [],
      "stateMutability": "nonpayable",
      "type": "function"
    },
    {
      "inputs": [],
      "name": "paused",
      "outputs": [
        {
          "internalType": "bool",
          "name": "",
          "type": "bool"
        }
      ],
      "stateMutability": "view",
      "type": "function"
    },
    {
      "inputs": [
        {
          "internalType": "address",
          "name": "validator",
          "type": "address"
        }
      ],
      "name": "removeValidator",
      "outputs": [],
      "stateMutability": "nonpayable",
      "type": "function"
    },
    {
      "inputs": [
        {
          "internalType": "bytes32",
          "name": "role",
          "type": "bytes32"
        },
        {
          "internalType": "address",
          "name": "callerConfirmation",
          "type": "address"
        }
      ],
      "name": "renounceRole",
      "outputs": [],
      "stateMutability": "nonpayable",
      "type": "function"
    },
    {
      "inputs": [],
      "name": "requiredValidators",
      "outputs": [
        {
          "internalType": "uint256",
          "name": "",
          "type": "uint256"
        }
      ],
      "stateMutability": "view",
      "type": "function"
    },
    {
      "inputs": [
        {
          "internalType": "bytes32",
          "name": "role",
          "type": "bytes32"
        },
        {
          "internalType": "address",
          "name": "account",
          "type": "address"
        }
      ],
      "name": "revokeRole",
      "outputs": [],
      "stateMutability": "nonpayable",
      "type": "function"
    },
    {
      "inputs": [
        {
          "internalType": "uint256",
          "name": "",
          "type": "uint256"
        }
      ],
      "name": "supportedChains",
      "outputs": [
        {
          "internalType": "bool",
          "name": "",
          "type": "bool"
        }
      ],
      "stateMutability": "view",
      "type": "function"
    },
    {
      "inputs": [
        {
          "internalType": "bytes4",
          "name": "interfaceId",
          "type": "bytes4"
        }
      ],
      "name": "supportsInterface",
      "outputs": [
        {
          "internalType": "bool",
          "name": "",
          "type": "bool"
        }
      ],
      "stateMutability": "view",
      "type": "function"
    },
    {
      "inputs": [],
      "name": "thalToken",
      "outputs": [
        {
          "internalType": "contract IERC20",
          "name": "",
          "type": "address"
        }
      ],
      "stateMutability": "view",
      "type": "function"
    },
    {
      "inputs": [],
      "name": "totalFeesCollected",
      "outputs": [
        {
          "internalType": "uint256",
          "name": "",
          "type": "uint256"
        }
      ],
      "stateMutability": "view",
      "type": "function"
    },
    {
      "inputs": [],
      "name": "totalTransferred",
      "outputs": [
        {
          "internalType": "uint256",
          "name": "",
          "type": "uint256"
        }
      ],
      "stateMutability": "view",
      "type": "function"
    },
    {
      "inputs": [
        {
          "internalType": "bytes32",
          "name": "",
          "type": "bytes32"
        }
      ],
      "name": "transferRequests",
      "outputs": [
        {
          "internalType": "address",
          "name": "sender",
          "type": "address"
        },
        {
          "internalType": "address",
          "name": "recipient",
          "type": "address"
        },
        {
          "internalType": "uint256",
          "name": "amount",
          "type": "uint256"
        },
        {
          "internalType": "uint256",
          "name": "sourceChainId",
          "type": "uint256"
        },
        {
          "internalType": "uint256",
          "name": "targetChainId",
          "type": "uint256"
        },
        {
          "internalType": "uint256",
          "name": "nonce",
          "type": "uint256"
        },
        {
          "internalType": "uint256",
          "name": "timestamp",
          "type": "uint256"
        },
        {
          "internalType": "bytes32",
          "name": "transferId",
          "type": "bytes32"
        },
        {
          "internalType": "bool",
          "name": "executed",
          "type": "bool"
        },
        {
          "internalType": "uint256",
          "name": "validatorCount",
          "type": "uint256"
        }
      ],
      "stateMutability": "view",
      "type": "function"
    },
    {
      "inputs": [],
      "name": "unpause",
      "outputs": [],
      "stateMutability": "nonpayable",
      "type": "function"
    },
    {
      "inputs": [
        {
          "internalType": "uint256",
          "name": "newFee",
          "type": "uint256"
        }
      ],
      "name": "updateBridgeFee",
      "outputs": [],
      "stateMutability": "nonpayable",
      "type": "function"
    },
    {
      "inputs": [
        {
          "internalType": "uint256",
          "name": "chainId",
          "type": "uint256"
        },
        {
          "internalType": "bool",
          "name": "supported",
          "type": "bool"
        }
      ],
      "name": "updateChainSupport",
      "outputs": [],
      "stateMutability": "nonpayable",
      "type": "function"
    },
    {
      "inputs": [
        {
          "internalType": "address",
          "name": "",
          "type": "address"
        }
      ],
      "name": "validatorNonces",
      "outputs": [
        {
          "internalType": "uint256",
          "name": "",
          "type": "uint256"
        }
      ],
      "stateMutability": "view",
      "type": "function"
    },
    {
      "inputs": [
        {
          "internalType": "uint256",
          "name": "",
          "type": "uint256"
        }
      ],
      "name": "validators",
      "outputs": [
        {
          "internalType": "address",
          "name": "",
          "type": "address"
        }
      ],
      "stateMutability": "view",
      "type": "function"
    },
    {
      "inputs": [
        {
          "internalType": "uint256",
          "name": "amount",
          "type": "uint256"
        },
        {
          "internalType": "address",
          "name": "recipient",
          "type": "address"
        }
      ],
      "name": "withdrawFees",
      "outputs": [],
      "stateMutability": "nonpayable",
      "type": "function"
    }
  ],
  "bytecode": "0x604060a08152346200044b57620024a3803803806200001e8162000450565b9283398101906080818303126200044b576200003a8162000476565b906020916200004b83830162000476565b936200005986840162000476565b60608401516001600160401b03949192918582116200044b570181601f820112156200044b57805194851162000287578460051b9086806200009d81850162000450565b8098815201928201019283116200044b5786809101915b8383106200043057505050506001948560025560018060a01b038093168015620003e0578382161562000390578383161562000340576003855110620002e557916200010a6200011192889594608052620004a0565b5062000520565b506000915b620001df575b50505180831b9080820460021490151715620001c9576003900490828201809211620001c957600491600a558260005252816000209060ff199181838254161790556038600052826000208183825416179055608960005282600020818382541617905561a86a6000528260002091825416179055678ac7230489e8000060065551611e239081620006608239608051818181610256015281816106400152818161085c01526115680152f35b634e487b7160e01b600052601160045260246000fd5b8251821015620002df5780620001f683856200048b565b5116156200029d5762000217816200020f84866200048b565b5116620005c2565b50806200022583856200048b565b51169160099081549368010000000000000000851015620002875787850180845585101562000271578794859360005287600020019060018060a01b0319825416179055019162000116565b634e487b7160e01b600052603260045260246000fd5b634e487b7160e01b600052604160045260246000fd5b60648487519062461bcd60e51b825280600483015260248201527f5468616c69756d4272696467653a20496e76616c69642076616c696461746f726044820152fd5b6200011c565b875162461bcd60e51b815260048101879052602e60248201527f5468616c69756d4272696467653a20496e73756666696369656e7420696e697460448201526d69616c2076616c696461746f727360901b6064820152608490fd5b875162461bcd60e51b815260048101879052602360248201527f5468616c69756d4272696467653a20496e76616c69642062726964676520616460448201526236b4b760e91b6064820152608490fd5b875162461bcd60e51b8152600481018790526024808201527f5468616c69756d4272696467653a20496e76616c69642064656661756c7420616044820152633236b4b760e11b6064820152608490fd5b875162461bcd60e51b815260048101879052602360248201527f5468616c69756d4272696467653a20496e76616c6964205448414c206164647260448201526265737360e81b6064820152608490fd5b81906200043d8462000476565b8152019101908690620000b4565b600080fd5b6040519190601f01601f191682016001600160401b038111838210176200028757604052565b51906001600160a01b03821682036200044b57565b8051821015620002715760209160051b010190565b6001600160a01b031660008181527fad3228b676f7d3cd4284a5443f17f1962b36e491b30a40b2405849e597ba5fb5602052604081205490919060ff166200051c57818052816020526040822081835260205260408220600160ff198254161790553391600080516020620024838339815191528180a4600190565b5090565b6001600160a01b031660008181527fdfff91bcee88f6ea00b2726f6d062a509c32835793470c55bed3bcc74c0f5d3760205260408120549091907f751b795d24b92e3d92d1d0d8f2885f4e9c9c269da350af36ae6b49069babf4bf9060ff16620005bd57808352826020526040832082845260205260408320600160ff1982541617905560008051602062002483833981519152339380a4600190565b505090565b6001600160a01b031660008181527f5111aeae4aa79889928e72f88b5872109754de9d419ea9a4e3df5fba21d4d46f60205260408120549091907f21702c8af46127c7fa207f89d0b0a8441bb32959a0ac7df790e9ab1a25c989269060ff16620005bd57808352826020526040832082845260205260408320600160ff1982541617905560008051602062002483833981519152339380a460019056fe608060408181526004918236101561001657600080fd5b600092833560e01c91826301ffc9a7146117b557508163035124db1461177d578163118c38c7146117425781632165cbb714611701578163248a9ca3146116d75781632f2ff15d146116ad57816335aa2e441461166c57816336568abe146116265781633f4ba83a146115975781633f4fbb6e1461155357816340a141ff146113425781634d238c8e1461112c5781635221c1f014611100578163548d496f146111005781635a1c0366146110b25781635c975abb1461108e5781635ed1f9631461107257816360c6d8ae14611053578163714897df146110375781637588ad0e14610fc357816382b12dd714610fa45781638456cb5914610f2557816391d1485414610edf57816397adc59a14610e4457816397c875dd14610e255781639b087b2d14610e06578163a217fddf14610deb578163b7ab4db514610d26578163c49baebe14610cfd578163c4bffe2b14610b32578163c8f3ac2a14610aae578163cddbf11114610704578163d547741f146106c1578163dd2cc3f3146105d2578163e943382f146101d1575063f765a2d5146101b157600080fd5b346101cd57816003193601126101cd5760209051620151808152f35b5080fd5b8383346101cd5760603660031901126101cd576101ec611808565b92602492833590604435906101ff611cd4565b610207611cf2565b6001600160a01b038781169461021e86151561192d565b610229851515611978565b83835260209781895260ff8885205416156105915746851461053a5761025160065487611886565b93818a7f0000000000000000000000000000000000000000000000000000000000000000958b51928380926370a0823160e01b8252338983015289165afa9081156105305790869183916104ff575b50106104b15733815260058a52888120928354936102bd8561191e565b905589518b81019c8d3360601b90526bffffffffffffffffffffffff199060601b1660348201528860488201524660688201528760888201528460a88201524260c882015260c8815261010081019067ffffffffffffffff958183108784111761049e5760038e9f848f52835190209e8f8752528c852092600684019283546104465750509160099185938d6bffffffffffffffffffffffff60a01b90338286541617855560018501918254161790558c60028401554660038401558b8684015560058301554290558d60078201556008810160ff19815416905501558951956323b872dd60e01b8d880152338488015230604488015260648701526064865260a0860193868510908511176104365750505086526103dc9190611d65565b6103e882600754611886565b6007556103f9600654600854611886565b600855835191825285820152837fb28a474eaf330b4e61bd38e35ede4212e0880ad81cde1f5a5adbd3ef8b1a9dd6843393a4600160025551908152f35b634e487b7160e01b825260419052fd5b92509450506339b4b7b760e11b925061016491506084948e62461bcd60e51b86526101048301526101248201527f5468616c69756d4272696467653a205472616e7366657220494420636f6c6c696101448201520152fd5b5050634e487b7160e01b83525060419052fd5b885162461bcd60e51b81528084018b90526023818401527f5468616c69756d4272696467653a20496e73756666696369656e742062616c616044820152626e636560e81b6064820152608490fd5b8092508c8092503d8311610529575b61051881836118a9565b810103126101cd578590518d6102a0565b503d61050e565b8a513d84823e3d90fd5b875162461bcd60e51b8152918201899052602c908201527f5468616c69756d4272696467653a2043616e6e6f74207472616e73666572207460448201526b379039b0b6b29031b430b4b760a11b6064820152608490fd5b875162461bcd60e51b815291820189905281018890527f5468616c69756d4272696467653a20556e737570706f7274656420636861696e6044820152606490fd5b8383346101cd57806003193601126101cd578235906105ef611823565b906105f8611a2b565b610600611cf2565b6106146001600160a01b038316151561192d565b61061f831515611978565b6008549083821061067f575082810390811161066c576106649394506008557f0000000000000000000000000000000000000000000000000000000000000000611d13565b600160025580f35b634e487b7160e01b845260118552602484fd5b5162461bcd60e51b8152602081870181905260248201527f5468616c69756d4272696467653a20496e73756666696369656e7420666565736044820152606490fd5b919050346107005780600319360112610700576106fc91356106f760016106e6611823565b938387528660205286200154611a87565b611c5f565b5080f35b8280fd5b9190503461070057608036600319011261070057813590610723611823565b906044803590606495863591600080516020611dce83398151915291828a526020928a8452868b20338c52845260ff878c20541615610a955750610765611cd4565b61076d611cf2565b878a5260038352858a20906006820154998a15610a4a57600883019360ff855416610a0b5760018401546001600160a01b038b81169d91168d90036109bf578860028601540361097f578760038601540361093f5762015180810180911161092c5742116108ed57908c929160ff8a600a870195338152868a5220541661089757505050338b5283526009868b209160ff199260018482541617905501610814815461191e565b809155600a54111561082a575b89600160025580f35b7f3f6ac88371c5be47a921b79d53648f0fd3548bb3b09c86ff8b43bed4743da8119682600187936108809554161790557f0000000000000000000000000000000000000000000000000000000000000000611d13565b8351928352820152a3388080808080808080610821565b895162461bcd60e51b8152928301879052602c60248401527f5468616c69756d4272696467653a20416c726561647920617070726f76656420908301526b313c903b30b634b230ba37b960a11b90820152608490fd5b7f5468616c69756d4272696467653a205472616e736665722065787069726564008391878b519362461bcd60e51b8552840152601f6024840152820152fd5b634e487b7160e01b8e526011845260248efd5b507f5468616c69756d4272696467653a20436861696e206d69736d617463680000008391878b519362461bcd60e51b8552840152601d6024840152820152fd5b507f5468616c69756d4272696467653a20416d6f756e74206d69736d6174636800008391878b519362461bcd60e51b8552840152601e6024840152820152fd5b50885162461bcd60e51b8152928301869052602160248401527f5468616c69756d4272696467653a20526563697069656e74206d69736d61746390830152600d60fb1b90820152608490fd5b7f5468616c69756d4272696467653a20416c7265616479206578656375746564008391878b519362461bcd60e51b8552840152601f6024840152820152fd5b875162461bcd60e51b8152918201859052602160248301527f5468616c69756d4272696467653a205472616e73666572206e6f7420666f756e82850152601960fa1b90820152608490fd5b86519163e2517d3f60e01b835233908301526024820152fd5b9050346107005760203660031901126107005781610100938235815260036020522060018060a01b039283825416936001830154169260028301549060038401549084015491600685015493600960ff60088801541696015496815198895260208901528701526060860152608085015260a0840152151560c083015260e0820152f35b828434610cfa5780600319360112610cfa5781519067ffffffffffffffff90610160830182811184821017610ce7578452600a80845260209190610140803685880137829487519182019082821090821117610cd4578752600180825260388286015260898289015261a86a606083015261a4b16080830152600a60a083015261210560c0830152606460e083015260fa610100830152610504610120830152959792949392855b838110610c7d5750505050610bee826118e1565b91610bfb865193846118a9565b808352610c07816118e1565b8383019790601f1901368937845b828110610c52575050508451948186019282875251809352850195925b828110610c3f5785870386f35b8351875295810195928101928401610c32565b9586610c64829a98849896979861190a565b51610c6f828961190a565b520197959794939294610c15565b9687610c8f829b9985999798996118f9565b51865282875260ff8a87205416610cae575b0198969895949395610bda565b96610cce90610cbd89866118f9565b51610cc8828c61190a565b5261191e565b96610ca1565b634e487b7160e01b845260418952602484fd5b634e487b7160e01b825260418652602482fd5b80fd5b5050346101cd57816003193601126101cd5760209051600080516020611dce8339815191528152f35b828434610cfa5780600319360112610cfa579080519182906009549182855260208095018093600984527f6e1540171b6c0c960b71a7020d9f60077f6af931a8bbf590da0223dacf75c7af90845b818110610dce5750505081610d8a9103826118a9565b83519485948186019282875251809352850193925b828110610dae57505050500390f35b83516001600160a01b031685528695509381019392810192600101610d9f565b82546001600160a01b031684529288019260019283019201610d74565b5050346101cd57816003193601126101cd5751908152602090f35b5050346101cd57816003193601126101cd576020906007549051908152f35b5050346101cd57816003193601126101cd57602090600a549051908152f35b9050346107005760203660031901126107005781610140938235815260036020522060018060a01b0392838254169360018301541692600283015490600384015490840154600585015491600686015493600787015495600960ff60088a0154169801549881519a8b5260208b01528901526060880152608087015260a086015260c085015260e08401521515610100830152610120820152f35b9050346107005781600319360112610700578160209360ff92610f00611823565b903582528186528282206001600160a01b039091168252855220549151911615158152f35b5050346101cd57816003193601126101cd5760207f62e78cea01bee320cd4e420270b5ea74000d11b0c9f74754ebdbfc544b05a25891610f636119d3565b610f6b611cd4565b600160ff198154161760015551338152a1337fb8fad2fa0ed7a383e747c309ef2c4391d7b65592a48893e57ccc1fab707914568280a280f35b5050346101cd57816003193601126101cd576020906006549051908152f35b919050346107005780600319360112610700578135602435801515809103611033577f3867ef478c2fcf9f1d860353178b53a6a5b10cdee0ab40aacda7ca6b38b86d739361100f611a2b565b82865260205282852060ff1981541660ff831617905582519182526020820152a180f35b8480fd5b5050346101cd57816003193601126101cd5760209051600a8152f35b5050346101cd57816003193601126101cd576020906008549051908152f35b5050346101cd57816003193601126101cd576020905160038152f35b5050346101cd57816003193601126101cd5760209060ff6001541690519015158152f35b905034610700576020366003190112610700577f42dfb00d085d601e55327921154ae76c1b24270b026c5a0c51caee18eb4c401f9160209135906110f4611a2b565b8160065551908152a180f35b90503461070057602036600319011261070057816020938260ff93358252855220541690519015158152f35b9050346107005760208060031936011261133e57611148611808565b90611151611a2b565b6001600160a01b0382169384156112fd57600080516020611dce8339815191528652858252808620858752825260ff81872054166112bc57600a600954101561127057505061119f81611aad565b506009546801000000000000000081101561125d57906111c88260016111e69401600955611839565b90919060018060a01b038084549260031b9316831b921b1916179055565b6009548060011b908082046002149015171561124a576003900490600182018092116112375750600a557fe366c1c0452ed8eec96861e9e54141ebff23c9ec89fe27b996b45f5ec38849878280a280f35b634e487b7160e01b845260119052602483fd5b634e487b7160e01b845260118252602484fd5b634e487b7160e01b855260418352602485fd5b5162461bcd60e51b81529283015250602260248201527f5468616c69756d4272696467653a20546f6f206d616e792076616c696461746f604482015261727360f01b6064820152608490fd5b816064928592519262461bcd60e51b845283015260248201527f5468616c69756d4272696467653a20416c72656164792076616c696461746f726044820152fd5b816064928592519262461bcd60e51b845283015260248201527f5468616c69756d4272696467653a20496e76616c69642076616c696461746f726044820152fd5b8380fd5b9050346107005760203660031901126107005761135d611808565b90611366611a2b565b600080516020611dce8339815191528452836020528284209160018060a01b03938482169384875260205260ff81872054161561151157600391600991600360095411156114bb57506113b890611bc6565b50855b8154808210156114af5785876113d084611839565b905490871b1c16146113e557506001016113bb565b906000969293949596199182810190811161149c57906111c88461140b61141894611839565b905490891b1c1691611839565b8254801561148957019261142b84611839565b81939154921b1b19169055555b6009548060011b908082046002149015171561124a576003900490600182018092116112375750600a557fe1434e25d6611e0db941968fdc97811c982ac1602e951637d206f5fdda9dd8f18280a280f35b634e487b7160e01b885260318652602488fd5b634e487b7160e01b895260118752602489fd5b50505050909150611438565b5162461bcd60e51b8152602081860152602b60248201527f5468616c69756d4272696467653a2043616e6e6f742072656d6f7665206c617360448201526a3a103b30b634b230ba37b960a91b6064820152608490fd5b5162461bcd60e51b8152602081840152601e60248201527f5468616c69756d4272696467653a204e6f7420612076616c696461746f7200006044820152606490fd5b5050346101cd57816003193601126101cd57517f00000000000000000000000000000000000000000000000000000000000000006001600160a01b03168152602090f35b9050346107005782600319360112610700576115b16119d3565b6001549060ff821615611618575060ff1916600155513381527f5db9ee0a495bf2e6ff9c91a7834c1ba4fdd244a5e8aa4e537bd38aeae4b073aa90602090a1337ff5cbf596165cc457b2cd92e8d8450827ee314968160a5696402d75766fc52caf8280a280f35b8251638dfc202b60e01b8152fd5b8383346101cd57806003193601126101cd57611640611823565b90336001600160a01b0383160361165d57506106fc919235611c5f565b5163334bd91960e11b81528390fd5b905034610700576020366003190112610700573591600954831015610cfa5750611697602092611839565b905491519160018060a01b039160031b1c168152f35b919050346107005780600319360112610700576106fc91356116d260016106e6611823565b611b4d565b90503461070057602036600319011261070057816020936001923581528085522001549051908152f35b5050346101cd57816003193601126101cd5760a090600754906008549060065460095491600a54938151958652602086015284015260608301526080820152f35b5050346101cd57816003193601126101cd57602090517f751b795d24b92e3d92d1d0d8f2885f4e9c9c269da350af36ae6b49069babf4bf8152f35b5050346101cd5760203660031901126101cd5760209181906001600160a01b036117a5611808565b1681526005845220549051908152f35b849134610700576020366003190112610700573563ffffffff60e01b81168091036107005760209250637965db0b60e01b81149081156117f7575b5015158152f35b6301ffc9a760e01b149050836117f0565b600435906001600160a01b038216820361181e57565b600080fd5b602435906001600160a01b038216820361181e57565b6009548110156118705760096000527f6e1540171b6c0c960b71a7020d9f60077f6af931a8bbf590da0223dacf75c7af0190600090565b634e487b7160e01b600052603260045260246000fd5b9190820180921161189357565b634e487b7160e01b600052601160045260246000fd5b90601f8019910116810190811067ffffffffffffffff8211176118cb57604052565b634e487b7160e01b600052604160045260246000fd5b67ffffffffffffffff81116118cb5760051b60200190565b90600a8110156118705760051b0190565b80518210156118705760209160051b010190565b60001981146118935760010190565b1561193457565b606460405162461bcd60e51b815260206004820152602060248201527f5468616c69756d4272696467653a20496e76616c696420726563697069656e746044820152fd5b1561197f57565b60405162461bcd60e51b815260206004820152602660248201527f5468616c69756d4272696467653a20416d6f756e74206d75737420626520706f60448201526573697469766560d01b6064820152608490fd5b3360009081527fad3228b676f7d3cd4284a5443f17f1962b36e491b30a40b2405849e597ba5fb5602052604081205460ff1615611a0d5750565b6044906040519063e2517d3f60e01b82523360048301526024820152fd5b3360009081527fdfff91bcee88f6ea00b2726f6d062a509c32835793470c55bed3bcc74c0f5d3760205260409020547f751b795d24b92e3d92d1d0d8f2885f4e9c9c269da350af36ae6b49069babf4bf9060ff1615611a0d5750565b80600052600060205260406000203360005260205260ff6040600020541615611a0d5750565b6001600160a01b031660008181527f5111aeae4aa79889928e72f88b5872109754de9d419ea9a4e3df5fba21d4d46f6020526040812054909190600080516020611dce8339815191529060ff16611b4857808352826020526040832082845260205260408320600160ff198254161790557f2f8788117e7eff1d82e926ec794901d17c78024a50270940304540a733656f0d339380a4600190565b505090565b9060009180835282602052604083209160018060a01b03169182845260205260ff60408420541615600014611b4857808352826020526040832082845260205260408320600160ff198254161790557f2f8788117e7eff1d82e926ec794901d17c78024a50270940304540a733656f0d339380a4600190565b6001600160a01b031660008181527f5111aeae4aa79889928e72f88b5872109754de9d419ea9a4e3df5fba21d4d46f6020526040812054909190600080516020611dce8339815191529060ff1615611b485780835282602052604083208284526020526040832060ff1981541690557ff6391f5c32d9c69d2a47ea670b442974b53935d1edc7fd64eb21e047a839171b339380a4600190565b9060009180835282602052604083209160018060a01b03169182845260205260ff604084205416600014611b485780835282602052604083208284526020526040832060ff1981541690557ff6391f5c32d9c69d2a47ea670b442974b53935d1edc7fd64eb21e047a839171b339380a4600190565b60ff60015416611ce057565b60405163d93c066560e01b8152600490fd5b6002805414611d015760028055565b604051633ee5aeb560e01b8152600490fd5b60405163a9059cbb60e01b60208201526001600160a01b039092166024830152604480830193909352918152608081019167ffffffffffffffff8311828410176118cb57611d6392604052611d65565b565b906000602091828151910182855af115611dc1576000513d611db857506001600160a01b0381163b155b611d965750565b604051635274afe760e01b81526001600160a01b039091166004820152602490fd5b60011415611d8f565b6040513d6000823e3d90fdfe21702c8af46127c7fa207f89d0b0a8441bb32959a0ac7df790e9ab1a25c98926a2646970667358221220af71ad1d68e14740846822ee473a70a3c2372d1b36aae413fe5dc4fdd451248064736f6c634300081800332f8788117e7eff1d82e926ec794901d17c78024a50270940304540a733656f0d",
  "linkReferences": {},
  "deployedLinkReferences": {}
}