{
  "_format": "hh-sol-artifact-1",
  "contractName": "ThaliumPresale",
  "sourceName": "contracts/ThaliumPresale.sol",
  "abi": [
    {
      "inputs": [
        {
          "internalType": "address",
          "name": "usdtTokenAddress",
          "type": "address"
        },
        {
          "internalType": "address",
          "name": "thalTokenAddress",
          "type": "address"
        },
        {
          "internalType": "address",
          "name": "defaultAdmin",
          "type": "address"
        },
        {
          "internalType": "address",
          "name": "presaleManager",
          "type": "address"
        },
        {
          "internalType": "address",
          "name": "complianceOfficer",
          "type": "address"
        }
      ],
      "stateMutability": "nonpayable",
      "type": "constructor"
    },
    {
      "inputs": [],
      "name": "AccessControlBadConfirmation",
      "type": "error"
    },
    {
      "inputs": [
        {
          "internalType": "address",
          "name": "account",
          "type": "address"
        },
        {
          "internalType": "bytes32",
          "name": "neededRole",
          "type": "bytes32"
        }
      ],
      "name": "AccessControlUnauthorizedAccount",
      "type": "error"
    },
    {
      "inputs": [],
      "name": "EnforcedPause",
      "type": "error"
    },
    {
      "inputs": [],
      "name": "ExpectedPause",
      "type": "error"
    },
    {
      "inputs": [],
      "name": "ReentrancyGuardReentrantCall",
      "type": "error"
    },
    {
      "inputs": [
        {
          "internalType": "address",
          "name": "token",
          "type": "address"
        }
      ],
      "name": "SafeERC20FailedOperation",
      "type": "error"
    },
    {
      "anonymous": false,
      "inputs": [
        {
          "indexed": true,
          "internalType": "address",
          "name": "pauser",
          "type": "address"
        }
      ],
      "name": "EmergencyPaused",
      "type": "event"
    },
    {
      "anonymous": false,
      "inputs": [
        {
          "indexed": true,
          "internalType": "address",
          "name": "unpauser",
          "type": "address"
        }
      ],
      "name": "EmergencyUnpaused",
      "type": "event"
    },
    {
      "anonymous": false,
      "inputs": [
        {
          "indexed": false,
          "internalType": "address",
          "name": "account",
          "type": "address"
        }
      ],
      "name": "Paused",
      "type": "event"
    },
    {
      "anonymous": false,
      "inputs": [
        {
          "indexed": false,
          "internalType": "uint256",
          "name": "totalTokensSold",
          "type": "uint256"
        },
        {
          "indexed": false,
          "internalType": "uint256",
          "name": "totalUsdtRaised",
          "type": "uint256"
        }
      ],
      "name": "PresaleEnded",
      "type": "event"
    },
    {
      "anonymous": false,
      "inputs": [
        {
          "indexed": false,
          "internalType": "uint256",
          "name": "startTime",
          "type": "uint256"
        },
        {
          "indexed": false,
          "internalType": "uint256",
          "name": "endTime",
          "type": "uint256"
        }
      ],
      "name": "PresaleStarted",
      "type": "event"
    },
    {
      "anonymous": false,
      "inputs": [
        {
          "indexed": true,
          "internalType": "bytes32",
          "name": "role",
          "type": "bytes32"
        },
        {
          "indexed": true,
          "internalType": "bytes32",
          "name": "previousAdminRole",
          "type": "bytes32"
        },
        {
          "indexed": true,
          "internalType": "bytes32",
          "name": "newAdminRole",
          "type": "bytes32"
        }
      ],
      "name": "RoleAdminChanged",
      "type": "event"
    },
    {
      "anonymous": false,
      "inputs": [
        {
          "indexed": true,
          "internalType": "bytes32",
          "name": "role",
          "type": "bytes32"
        },
        {
          "indexed": true,
          "internalType": "address",
          "name": "account",
          "type": "address"
        },
        {
          "indexed": true,
          "internalType": "address",
          "name": "sender",
          "type": "address"
        }
      ],
      "name": "RoleGranted",
      "type": "event"
    },
    {
      "anonymous": false,
      "inputs": [
        {
          "indexed": true,
          "internalType": "bytes32",
          "name": "role",
          "type": "bytes32"
        },
        {
          "indexed": true,
          "internalType": "address",
          "name": "account",
          "type": "address"
        },
        {
          "indexed": true,
          "internalType": "address",
          "name": "sender",
          "type": "address"
        }
      ],
      "name": "RoleRevoked",
      "type": "event"
    },
    {
      "anonymous": false,
      "inputs": [
        {
          "indexed": true,
          "internalType": "address",
          "name": "buyer",
          "type": "address"
        },
        {
          "indexed": false,
          "internalType": "uint256",
          "name": "usdtAmount",
          "type": "uint256"
        },
        {
          "indexed": false,
          "internalType": "uint256",
          "name": "thalAmount",
          "type": "uint256"
        },
        {
          "indexed": false,
          "internalType": "bytes32",
          "name": "vestingScheduleId",
          "type": "bytes32"
        }
      ],
      "name": "TokensPurchased",
      "type": "event"
    },
    {
      "anonymous": false,
      "inputs": [
        {
          "indexed": false,
          "internalType": "address",
          "name": "account",
          "type": "address"
        }
      ],
      "name": "Unpaused",
      "type": "event"
    },
    {
      "inputs": [],
      "name": "COMPLIANCE_ROLE",
      "outputs": [
        {
          "internalType": "bytes32",
          "name": "",
          "type": "bytes32"
        }
      ],
      "stateMutability": "view",
      "type": "function"
    },
    {
      "inputs": [],
      "name": "DEFAULT_ADMIN_ROLE",
      "outputs": [
        {
          "internalType": "bytes32",
          "name": "",
          "type": "bytes32"
        }
      ],
      "stateMutability": "view",
      "type": "function"
    },
    {
      "inputs": [],
      "name": "MAX_PURCHASE",
      "outputs": [
        {
          "internalType": "uint256",
          "name": "",
          "type": "uint256"
        }
      ],
      "stateMutability": "view",
      "type": "function"
    },
    {
      "inputs": [],
      "name": "MIN_PURCHASE",
      "outputs": [
        {
          "internalType": "uint256",
          "name": "",
          "type": "uint256"
        }
      ],
      "stateMutability": "view",
      "type": "function"
    },
    {
      "inputs": [],
      "name": "PRESALE_DURATION",
      "outputs": [
        {
          "internalType": "uint256",
          "name": "",
          "type": "uint256"
        }
      ],
      "stateMutability": "view",
      "type": "function"
    },
    {
      "inputs": [],
      "name": "PRESALE_MANAGER_ROLE",
      "outputs": [
        {
          "internalType": "bytes32",
          "name": "",
          "type": "bytes32"
        }
      ],
      "stateMutability": "view",
      "type": "function"
    },
    {
      "inputs": [
        {
          "internalType": "uint256",
          "name": "usdtAmount",
          "type": "uint256"
        }
      ],
      "name": "calculateThalAmount",
      "outputs": [
        {
          "internalType": "uint256",
          "name": "",
          "type": "uint256"
        }
      ],
      "stateMutability": "pure",
      "type": "function"
    },
    {
      "inputs": [],
      "name": "getPresaleStatus",
      "outputs": [
        {
          "internalType": "uint256",
          "name": "startTime",
          "type": "uint256"
        },
        {
          "internalType": "uint256",
          "name": "endTime",
          "type": "uint256"
        },
        {
          "internalType": "uint256",
          "name": "tokensSold",
          "type": "uint256"
        },
        {
          "internalType": "uint256",
          "name": "usdtRaised",
          "type": "uint256"
        },
        {
          "internalType": "bool",
          "name": "isActive",
          "type": "bool"
        }
      ],
      "stateMutability": "view",
      "type": "function"
    },
    {
      "inputs": [
        {
          "internalType": "bytes32",
          "name": "role",
          "type": "bytes32"
        }
      ],
      "name": "getRoleAdmin",
      "outputs": [
        {
          "internalType": "bytes32",
          "name": "",
          "type": "bytes32"
        }
      ],
      "stateMutability": "view",
      "type": "function"
    },
    {
      "inputs": [
        {
          "internalType": "address",
          "name": "user",
          "type": "address"
        }
      ],
      "name": "getUserPurchaseInfo",
      "outputs": [
        {
          "internalType": "uint256",
          "name": "usdtPurchased",
          "type": "uint256"
        },
        {
          "internalType": "uint256",
          "name": "thalAllocated",
          "type": "uint256"
        },
        {
          "internalType": "uint256",
          "name": "remainingLimit",
          "type": "uint256"
        }
      ],
      "stateMutability": "view",
      "type": "function"
    },
    {
      "inputs": [
        {
          "internalType": "bytes32",
          "name": "role",
          "type": "bytes32"
        },
        {
          "internalType": "address",
          "name": "account",
          "type": "address"
        }
      ],
      "name": "grantRole",
      "outputs": [],
      "stateMutability": "nonpayable",
      "type": "function"
    },
    {
      "inputs": [
        {
          "internalType": "bytes32",
          "name": "role",
          "type": "bytes32"
        },
        {
          "internalType": "address",
          "name": "account",
          "type": "address"
        }
      ],
      "name": "hasRole",
      "outputs": [
        {
          "internalType": "bool",
          "name": "",
          "type": "bool"
        }
      ],
      "stateMutability": "view",
      "type": "function"
    },
    {
      "inputs": [],
      "name": "isPresaleActive",
      "outputs": [
        {
          "internalType": "bool",
          "name": "",
          "type": "bool"
        }
      ],
      "stateMutability": "view",
      "type": "function"
    },
    {
      "inputs": [],
      "name": "pause",
      "outputs": [],
      "stateMutability": "nonpayable",
      "type": "function"
    },
    {
      "inputs": [],
      "name": "paused",
      "outputs": [
        {
          "internalType": "bool",
          "name": "",
          "type": "bool"
        }
      ],
      "stateMutability": "view",
      "type": "function"
    },
    {
      "inputs": [],
      "name": "presaleEndTime",
      "outputs": [
        {
          "internalType": "uint256",
          "name": "",
          "type": "uint256"
        }
      ],
      "stateMutability": "view",
      "type": "function"
    },
    {
      "inputs": [],
      "name": "presaleStartTime",
      "outputs": [
        {
          "internalType": "uint256",
          "name": "",
          "type": "uint256"
        }
      ],
      "stateMutability": "view",
      "type": "function"
    },
    {
      "inputs": [
        {
          "internalType": "uint256",
          "name": "usdtAmount",
          "type": "uint256"
        }
      ],
      "name": "purchaseTokens",
      "outputs": [],
      "stateMutability": "nonpayable",
      "type": "function"
    },
    {
      "inputs": [
        {
          "internalType": "bytes32",
          "name": "role",
          "type": "bytes32"
        },
        {
          "internalType": "address",
          "name": "callerConfirmation",
          "type": "address"
        }
      ],
      "name": "renounceRole",
      "outputs": [],
      "stateMutability": "nonpayable",
      "type": "function"
    },
    {
      "inputs": [
        {
          "internalType": "bytes32",
          "name": "role",
          "type": "bytes32"
        },
        {
          "internalType": "address",
          "name": "account",
          "type": "address"
        }
      ],
      "name": "revokeRole",
      "outputs": [],
      "stateMutability": "nonpayable",
      "type": "function"
    },
    {
      "inputs": [
        {
          "internalType": "address",
          "name": "vestingAddr",
          "type": "address"
        }
      ],
      "name": "setVestingContract",
      "outputs": [],
      "stateMutability": "nonpayable",
      "type": "function"
    },
    {
      "inputs": [
        {
          "internalType": "uint256",
          "name": "startTime",
          "type": "uint256"
        }
      ],
      "name": "startPresale",
      "outputs": [],
      "stateMutability": "nonpayable",
      "type": "function"
    },
    {
      "inputs": [
        {
          "internalType": "bytes4",
          "name": "interfaceId",
          "type": "bytes4"
        }
      ],
      "name": "supportsInterface",
      "outputs": [
        {
          "internalType": "bool",
          "name": "",
          "type": "bool"
        }
      ],
      "stateMutability": "view",
      "type": "function"
    },
    {
      "inputs": [],
      "name": "thalToken",
      "outputs": [
        {
          "internalType": "contract IERC20",
          "name": "",
          "type": "address"
        }
      ],
      "stateMutability": "view",
      "type": "function"
    },
    {
      "inputs": [],
      "name": "totalTokensSold",
      "outputs": [
        {
          "internalType": "uint256",
          "name": "",
          "type": "uint256"
        }
      ],
      "stateMutability": "view",
      "type": "function"
    },
    {
      "inputs": [],
      "name": "totalUsdtRaised",
      "outputs": [
        {
          "internalType": "uint256",
          "name": "",
          "type": "uint256"
        }
      ],
      "stateMutability": "view",
      "type": "function"
    },
    {
      "inputs": [],
      "name": "unpause",
      "outputs": [],
      "stateMutability": "nonpayable",
      "type": "function"
    },
    {
      "inputs": [],
      "name": "usdtToken",
      "outputs": [
        {
          "internalType": "contract IERC20",
          "name": "",
          "type": "address"
        }
      ],
      "stateMutability": "view",
      "type": "function"
    },
    {
      "inputs": [
        {
          "internalType": "address",
          "name": "",
          "type": "address"
        }
      ],
      "name": "userAllocations",
      "outputs": [
        {
          "internalType": "uint256",
          "name": "",
          "type": "uint256"
        }
      ],
      "stateMutability": "view",
      "type": "function"
    },
    {
      "inputs": [
        {
          "internalType": "address",
          "name": "",
          "type": "address"
        }
      ],
      "name": "userPurchases",
      "outputs": [
        {
          "internalType": "uint256",
          "name": "",
          "type": "uint256"
        }
      ],
      "stateMutability": "view",
      "type": "function"
    },
    {
      "inputs": [],
      "name": "vestingContract",
      "outputs": [
        {
          "internalType": "address",
          "name": "",
          "type": "address"
        }
      ],
      "stateMutability": "view",
      "type": "function"
    },
    {
      "inputs": [
        {
          "internalType": "uint256",
          "name": "amount",
          "type": "uint256"
        },
        {
          "internalType": "address",
          "name": "recipient",
          "type": "address"
        }
      ],
      "name": "withdrawUnsoldTokens",
      "outputs": [],
      "stateMutability": "nonpayable",
      "type": "function"
    },
    {
      "inputs": [
        {
          "internalType": "uint256",
          "name": "amount",
          "type": "uint256"
        },
        {
          "internalType": "address",
          "name": "recipient",
          "type": "address"
        }
      ],
      "name": "withdrawUsdt",
      "outputs": [],
      "stateMutability": "nonpayable",
      "type": "function"
    }
  ],
  "bytecode": "0x60c034620002ce57601f62001ae138819003918201601f191683019291906001600160401b03841183851017620002d3578160a09284926040968752833981010312620002ce576200005181620002e9565b9060209162000062838301620002e9565b9062000070858401620002e9565b916200008d60806200008560608701620002e9565b9501620002e9565b6001600255946001600160a01b039283169182156200027e5783169283156200022e5780851615620001dc5780861615620001885786161562000132575060805260a052620000f59291620000ee91620000e790620002fe565b506200037e565b5062000420565b50516116039081620004be82396080518181816104910152818161089d0152610eef015260a0518181816103d30152818161081c0152610f930152f35b60849087519062461bcd60e51b82526004820152602a60248201527f5468616c69756d50726573616c653a20496e76616c696420636f6d706c69616e60448201526931b29037b33334b1b2b960b11b6064820152fd5b875162461bcd60e51b815260048101839052602760248201527f5468616c69756d50726573616c653a20496e76616c69642070726573616c652060448201526636b0b730b3b2b960c91b6064820152608490fd5b875162461bcd60e51b815260048101839052602560248201527f5468616c69756d50726573616c653a20496e76616c69642064656661756c742060448201526430b236b4b760d91b6064820152608490fd5b875162461bcd60e51b8152600481018390526024808201527f5468616c69756d50726573616c653a20496e76616c6964205448414c206164646044820152637265737360e01b6064820152608490fd5b875162461bcd60e51b8152600481018390526024808201527f5468616c69756d50726573616c653a20496e76616c69642055534454206164646044820152637265737360e01b6064820152608490fd5b600080fd5b634e487b7160e01b600052604160045260246000fd5b51906001600160a01b0382168203620002ce57565b6001600160a01b031660008181527fad3228b676f7d3cd4284a5443f17f1962b36e491b30a40b2405849e597ba5fb5602052604081205490919060ff166200037a57818052816020526040822081835260205260408220600160ff19825416179055339160008051602062001ac18339815191528180a4600190565b5090565b6001600160a01b031660008181527f5cab097e44cae7ba12c774d31b431ee970f545f1c75e203529e6f1922f29a5cd60205260408120549091907f9a6f9988fe8c878d48f9be9088ca25c64a9a2136d80e19be8893738c5896b4ed9060ff166200041b57808352826020526040832082845260205260408320600160ff1982541617905560008051602062001ac1833981519152339380a4600190565b505090565b6001600160a01b031660008181527f335573aa7cafba10a32e2694464d1e7e5294d917876d04d506249fbf84d791af60205260408120549091907f442a94f1a1fac79af32856af2a64f63648cfa2ef3b98610a5bb7cbec4cee69859060ff166200041b57808352826020526040832082845260205260408320600160ff1982541617905560008051602062001ac1833981519152339380a460019056fe60806040908082526004918236101561001757600080fd5b600091823560e01c90816301ffc9a71461117957508063062d3bd71461113f578063248a9ca314611115578063249b7c19146110f75780632f2ff15d146110cd57806336568abe1461108857806339f65c09146110515780633f4ba83a14610fc25780633f4fbb6e14610f7f5780634c0c87ff14610f485780635424145b14610e9d5780635c975abb14610e7a5780635e6f604514610e5257806360d938dc14610e0657806363b2011714610de85780636ea33e4e14610dca5780637146bd0814610dab5780637215256e14610d715780637499156914610cce5780637b97008d1461075c5780638456cb59146106de57806391d1485414610698578063945e40131461067b578063a132aad1146104f8578063a217fddf146104de578063a82524b2146104c0578063a98ad46c1461047d578063c8cae21114610381578063d439390c14610363578063d547741f14610324578063d7517caa1461026e578063d75b58301461021f5763e6801ac71461019057600080fd5b3461021b57602036600319011261021b576001600160a01b036101b16111e8565b16808352600760205281832054929091906402540be4008085106101f1575060609450808291935b81526008602052205481519384526020840152820152f35b8481039081116102085760609550908291936101d9565b634e487b7160e01b825260118652602482fd5b5080fd5b5091903461026b57602036600319011261026b5781359160648302928084046064149015171561025857602083620f4240865191048152f35b634e487b7160e01b825260119052602490fd5b80fd5b5082346103205782600319360112610320576003549181549060055490600654926020825180966318364e3760e21b825281305afa9485156103165787956102d1575b5060a0965081519586526020860152840152606083015215156080820152f35b9094506020813d60201161030e575b816102ed602093836112b0565b8101031261030a5751801515810361030a5760a0965093876102b1565b8680fd5b3d91506102e0565b82513d89823e3d90fd5b8280fd5b5082903461032057806003193601126103205761035f913561035a60016103496111cd565b9383875286602052862001546113bb565b61145f565b5080f35b503461021b578160031936011261021b57602090516305f5e1008152f35b50823461032057816003193601126103205780359061039e6111cd565b906103a7611363565b6103af6114d4565b6001600160a01b036103c483821615156111fe565b6103cf841515611254565b60207f00000000000000000000000000000000000000000000000000000000000000009260248751809481936370a0823160e01b8352309083015286165afa9485156104745750859461043a575b5061042d836104329510156112e8565b6114f5565b600160025580f35b93506020843d60201161046c575b81610455602093836112b0565b810103126104685792519261042d61041d565b8480fd5b3d9150610448565b513d87823e3d90fd5b503461021b578160031936011261021b57517f00000000000000000000000000000000000000000000000000000000000000006001600160a01b03168152602090f35b503461021b578160031936011261021b576020906003549051908152f35b503461021b578160031936011261021b5751908152602090f35b503461021b576020806003193601126103205783357f9a6f9988fe8c878d48f9be9088ca25c64a9a2136d80e19be8893738c5896b4ed808552848352838520338652835260ff84862054161561065d575060035461060a5780610604575042905b4282106105b657816003556276a7008201908183116105a357817f884f0ecd854b5bcb742f0156e594094458bddc3f2cc8c9e4048a7cedfa6f01cc9596558351928352820152a180f35b634e487b7160e01b855260118652602485fd5b8460849184519162461bcd60e51b83528201526024808201527f5468616c69756d50726573616c653a2043616e6e6f7420737461727420696e206044820152631c185cdd60e21b6064820152fd5b90610559565b825162461bcd60e51b8152808601839052602760248201527f5468616c69756d50726573616c653a2050726573616c6520616c7265616479206044820152661cdd185c9d195960ca1b6064820152608490fd5b835163e2517d3f60e01b815233818801526024810191909152604490fd5b503461021b578160031936011261021b57602090516276a7008152f35b5082346103205781600319360112610320578160209360ff926106b96111cd565b903582528186528282206001600160a01b039091168252855220549151911615158152f35b503461021b578160031936011261021b5760207f62e78cea01bee320cd4e420270b5ea74000d11b0c9f74754ebdbfc544b05a2589161071b611363565b610723611547565b600160ff198154161760015551338152a1337fb8fad2fa0ed7a383e747c309ef2c4391d7b65592a48893e57ccc1fab707914568280a280f35b508290346103205760209081600319360112610cca5782359261077d611547565b6107856114d4565b6003548015610c7c574210610c305780544211610bef576305f5e1008410610baf576402540be400808511610b6e57338652600784526107c88584882054611340565b11610b1d57606480850291858304821486151715610b0a57655af3107a400086029280840464e8d4a510001490151715610b0a5783516370a0823160e01b81523082820152602492906001600160a01b03907f000000000000000000000000000000000000000000000000000000000000000090888187818686165afa908115610b00579087918c91610acb575b5010610a785786516323b872dd60e01b8982015233868201523060448201528381018a905283815260a0810167ffffffffffffffff811182821017610a665788526108c1907f0000000000000000000000000000000000000000000000000000000000000000611565565b338a5260078852868a206108d68a8254611340565b9055338a5260088852868a206108ed878254611340565b90556108fb89600654611340565b60065561090a86600554611340565b6005556009548a9190831615610a4d575050600954169081156109fc5786928986959362278d0060e4948a519889978896631cc006a360e01b885233908801528601524260448601528401526276a70060848401528160a48401526670726573616c6560c81b60c48401525af19081156109f25786916109c1575b50925b82519485528401528201527f8505f4503d1b4dd6b340e249012bd6cb2691d95d7196d4068ffbced143eefb5660603392a2600160025580f35b90508381813d83116109eb575b6109d881836112b0565b810103126109e7575186610985565b8580fd5b503d6109ce565b83513d88823e3d90fd5b67081b9bdd081cd95d60c21b915060286084948888519562461bcd60e51b87528601528401527f5468616c69756d50726573616c653a2056657374696e6720636f6e74726163746044840152820152fd5b9150969350610a61925084915033906114f5565b610988565b634e487b7160e01b8c5260418652868cfd5b865162461bcd60e51b81528085018990526029818701527f5468616c69756d50726573616c653a20496e73756666696369656e74205448416044820152684c2062616c616e636560b81b81850152608490fd5b8092508a8092503d8311610af9575b610ae481836112b0565b81010312610af5578690518c610856565b8a80fd5b503d610ada565b88513d8d823e3d90fd5b634e487b7160e01b875260119052602486fd5b82608492519162461bcd60e51b8352820152602760248201527f5468616c69756d50726573616c653a20576f756c6420657863656564207573656044820152661c881b1a5b5a5d60ca1b6064820152fd5b508280606493519262461bcd60e51b845283015260248201527f5468616c69756d50726573616c653a20416d6f756e7420746f6f206c617267656044820152fd5b8280606493519262461bcd60e51b845283015260248201527f5468616c69756d50726573616c653a20416d6f756e7420746f6f20736d616c6c6044820152fd5b82606492519162461bcd60e51b8352820152601d60248201527f5468616c69756d50726573616c653a2050726573616c6520656e6465640000006044820152fd5b82608492519162461bcd60e51b8352820152602260248201527f5468616c69756d50726573616c653a2050726573616c65206e6f742061637469604482015261766560f01b6064820152fd5b5082608492519162461bcd60e51b8352820152602360248201527f5468616c69756d50726573616c653a2050726573616c65206e6f7420737461726044820152621d195960ea1b6064820152fd5b8380fd5b50823461032057602036600319011261032057610ce96111e8565b610cf1611363565b6001600160a01b0316918215610d1e5750506bffffffffffffffffffffffff60a01b600954161760095580f35b906020608492519162461bcd60e51b8352820152602760248201527f5468616c69756d50726573616c653a20496e76616c69642076657374696e67206044820152666164647265737360c81b6064820152fd5b503461021b578160031936011261021b57602090517f9a6f9988fe8c878d48f9be9088ca25c64a9a2136d80e19be8893738c5896b4ed8152f35b503461021b578160031936011261021b57602090516402540be4008152f35b503461021b578160031936011261021b576020906006549051908152f35b503461021b578160031936011261021b576020906005549051908152f35b5082903461032057826003193601126103205760209250600354918215159283610e47575b5082610e3b575b50519015158152f35b54421115915083610e32565b421015925084610e2b565b503461021b578160031936011261021b5760095490516001600160a01b039091168152602090f35b503461021b578160031936011261021b5760209060ff6001541690519015158152f35b508234610320578160031936011261032057803590610eba6111cd565b90610ec3611363565b610ecb6114d4565b6001600160a01b03610ee083821615156111fe565b610eeb841515611254565b60207f00000000000000000000000000000000000000000000000000000000000000009260248751809481936370a0823160e01b8352309083015286165afa9485156104745750859461043a575061042d836104329510156112e8565b503461021b57602036600319011261021b5760209181906001600160a01b03610f6f6111e8565b1681526008845220549051908152f35b503461021b578160031936011261021b57517f00000000000000000000000000000000000000000000000000000000000000006001600160a01b03168152602090f35b508234610320578260031936011261032057610fdc611363565b6001549060ff821615611043575060ff1916600155513381527f5db9ee0a495bf2e6ff9c91a7834c1ba4fdd244a5e8aa4e537bd38aeae4b073aa90602090a1337ff5cbf596165cc457b2cd92e8d8450827ee314968160a5696402d75766fc52caf8280a280f35b8251638dfc202b60e01b8152fd5b503461021b57602036600319011261021b5760209181906001600160a01b036110786111e8565b1681526007845220549051908152f35b503461021b578060031936011261021b576110a16111cd565b90336001600160a01b038316036110be575061035f91923561145f565b5163334bd91960e11b81528390fd5b5082903461032057806003193601126103205761035f91356110f260016103496111cd565b6113e1565b50823461032057826003193601126103205760209250549051908152f35b50823461032057602036600319011261032057816020936001923581528085522001549051908152f35b503461021b578160031936011261021b57602090517f442a94f1a1fac79af32856af2a64f63648cfa2ef3b98610a5bb7cbec4cee69858152f35b83908534610320576020366003190112610320573563ffffffff60e01b81168091036103205760209250637965db0b60e01b81149081156111bc575b5015158152f35b6301ffc9a760e01b149050836111b5565b602435906001600160a01b03821682036111e357565b600080fd5b600435906001600160a01b03821682036111e357565b1561120557565b60405162461bcd60e51b815260206004820152602160248201527f5468616c69756d50726573616c653a20496e76616c696420726563697069656e6044820152601d60fa1b6064820152608490fd5b1561125b57565b60405162461bcd60e51b815260206004820152602760248201527f5468616c69756d50726573616c653a20416d6f756e74206d75737420626520706044820152666f73697469766560c81b6064820152608490fd5b90601f8019910116810190811067ffffffffffffffff8211176112d257604052565b634e487b7160e01b600052604160045260246000fd5b156112ef57565b60405162461bcd60e51b8152602060048201526024808201527f5468616c69756d50726573616c653a20496e73756666696369656e742062616c604482015263616e636560e01b6064820152608490fd5b9190820180921161134d57565b634e487b7160e01b600052601160045260246000fd5b3360009081527fad3228b676f7d3cd4284a5443f17f1962b36e491b30a40b2405849e597ba5fb5602052604081205460ff161561139d5750565b6044906040519063e2517d3f60e01b82523360048301526024820152fd5b80600052600060205260406000203360005260205260ff604060002054161561139d5750565b9060009180835282602052604083209160018060a01b03169182845260205260ff6040842054161560001461145a57808352826020526040832082845260205260408320600160ff198254161790557f2f8788117e7eff1d82e926ec794901d17c78024a50270940304540a733656f0d339380a4600190565b505090565b9060009180835282602052604083209160018060a01b03169182845260205260ff60408420541660001461145a5780835282602052604083208284526020526040832060ff1981541690557ff6391f5c32d9c69d2a47ea670b442974b53935d1edc7fd64eb21e047a839171b339380a4600190565b60028054146114e35760028055565b604051633ee5aeb560e01b8152600490fd5b60405163a9059cbb60e01b60208201526001600160a01b039092166024830152604480830193909352918152608081019167ffffffffffffffff8311828410176112d25761154592604052611565565b565b60ff6001541661155357565b60405163d93c066560e01b8152600490fd5b906000602091828151910182855af1156115c1576000513d6115b857506001600160a01b0381163b155b6115965750565b604051635274afe760e01b81526001600160a01b039091166004820152602490fd5b6001141561158f565b6040513d6000823e3d90fdfea26469706673582212204ae508067c4954bfb003d951c7f70e5211708df3c2758e8cd98c76b96165e7e064736f6c634300081800332f8788117e7eff1d82e926ec794901d17c78024a50270940304540a733656f0d",
  "linkReferences": {},
  "deployedLinkReferences": {}
}