{
  "_format": "hh-sol-artifact-1",
  "contractName": "ThaliumVesting",
  "sourceName": "contracts/ThaliumVesting.sol",
  "abi": [
    {
      "inputs": [
        {
          "internalType": "address",
          "name": "thalTokenAddress",
          "type": "address"
        },
        {
          "internalType": "address",
          "name": "defaultAdmin",
          "type": "address"
        },
        {
          "internalType": "address",
          "name": "vestingManager",
          "type": "address"
        },
        {
          "internalType": "address",
          "name": "complianceOfficer",
          "type": "address"
        }
      ],
      "stateMutability": "nonpayable",
      "type": "constructor"
    },
    {
      "inputs": [],
      "name": "AccessControlBadConfirmation",
      "type": "error"
    },
    {
      "inputs": [
        {
          "internalType": "address",
          "name": "account",
          "type": "address"
        },
        {
          "internalType": "bytes32",
          "name": "neededRole",
          "type": "bytes32"
        }
      ],
      "name": "AccessControlUnauthorizedAccount",
      "type": "error"
    },
    {
      "inputs": [],
      "name": "EnforcedPause",
      "type": "error"
    },
    {
      "inputs": [],
      "name": "ExpectedPause",
      "type": "error"
    },
    {
      "inputs": [],
      "name": "ReentrancyGuardReentrantCall",
      "type": "error"
    },
    {
      "inputs": [
        {
          "internalType": "address",
          "name": "token",
          "type": "address"
        }
      ],
      "name": "SafeERC20FailedOperation",
      "type": "error"
    },
    {
      "anonymous": false,
      "inputs": [
        {
          "indexed": true,
          "internalType": "address",
          "name": "pauser",
          "type": "address"
        }
      ],
      "name": "EmergencyPaused",
      "type": "event"
    },
    {
      "anonymous": false,
      "inputs": [
        {
          "indexed": true,
          "internalType": "address",
          "name": "unpauser",
          "type": "address"
        }
      ],
      "name": "EmergencyUnpaused",
      "type": "event"
    },
    {
      "anonymous": false,
      "inputs": [
        {
          "indexed": false,
          "internalType": "address",
          "name": "account",
          "type": "address"
        }
      ],
      "name": "Paused",
      "type": "event"
    },
    {
      "anonymous": false,
      "inputs": [
        {
          "indexed": true,
          "internalType": "bytes32",
          "name": "role",
          "type": "bytes32"
        },
        {
          "indexed": true,
          "internalType": "bytes32",
          "name": "previousAdminRole",
          "type": "bytes32"
        },
        {
          "indexed": true,
          "internalType": "bytes32",
          "name": "newAdminRole",
          "type": "bytes32"
        }
      ],
      "name": "RoleAdminChanged",
      "type": "event"
    },
    {
      "anonymous": false,
      "inputs": [
        {
          "indexed": true,
          "internalType": "bytes32",
          "name": "role",
          "type": "bytes32"
        },
        {
          "indexed": true,
          "internalType": "address",
          "name": "account",
          "type": "address"
        },
        {
          "indexed": true,
          "internalType": "address",
          "name": "sender",
          "type": "address"
        }
      ],
      "name": "RoleGranted",
      "type": "event"
    },
    {
      "anonymous": false,
      "inputs": [
        {
          "indexed": true,
          "internalType": "bytes32",
          "name": "role",
          "type": "bytes32"
        },
        {
          "indexed": true,
          "internalType": "address",
          "name": "account",
          "type": "address"
        },
        {
          "indexed": true,
          "internalType": "address",
          "name": "sender",
          "type": "address"
        }
      ],
      "name": "RoleRevoked",
      "type": "event"
    },
    {
      "anonymous": false,
      "inputs": [
        {
          "indexed": true,
          "internalType": "bytes32",
          "name": "scheduleId",
          "type": "bytes32"
        },
        {
          "indexed": true,
          "internalType": "address",
          "name": "beneficiary",
          "type": "address"
        },
        {
          "indexed": false,
          "internalType": "uint256",
          "name": "amount",
          "type": "uint256"
        }
      ],
      "name": "TokensReleased",
      "type": "event"
    },
    {
      "anonymous": false,
      "inputs": [
        {
          "indexed": false,
          "internalType": "address",
          "name": "account",
          "type": "address"
        }
      ],
      "name": "Unpaused",
      "type": "event"
    },
    {
      "anonymous": false,
      "inputs": [
        {
          "indexed": true,
          "internalType": "bytes32",
          "name": "scheduleId",
          "type": "bytes32"
        },
        {
          "indexed": true,
          "internalType": "address",
          "name": "beneficiary",
          "type": "address"
        },
        {
          "indexed": false,
          "internalType": "uint256",
          "name": "totalAmount",
          "type": "uint256"
        },
        {
          "indexed": false,
          "internalType": "bytes32",
          "name": "category",
          "type": "bytes32"
        }
      ],
      "name": "VestingScheduleCreated",
      "type": "event"
    },
    {
      "anonymous": false,
      "inputs": [
        {
          "indexed": true,
          "internalType": "bytes32",
          "name": "scheduleId",
          "type": "bytes32"
        },
        {
          "indexed": true,
          "internalType": "address",
          "name": "beneficiary",
          "type": "address"
        },
        {
          "indexed": false,
          "internalType": "uint256",
          "name": "unvestedAmount",
          "type": "uint256"
        }
      ],
      "name": "VestingScheduleRevoked",
      "type": "event"
    },
    {
      "inputs": [],
      "name": "CLAIM_COOLDOWN",
      "outputs": [
        {
          "internalType": "uint256",
          "name": "",
          "type": "uint256"
        }
      ],
      "stateMutability": "view",
      "type": "function"
    },
    {
      "inputs": [],
      "name": "COMPLIANCE_ROLE",
      "outputs": [
        {
          "internalType": "bytes32",
          "name": "",
          "type": "bytes32"
        }
      ],
      "stateMutability": "view",
      "type": "function"
    },
    {
      "inputs": [],
      "name": "DEFAULT_ADMIN_ROLE",
      "outputs": [
        {
          "internalType": "bytes32",
          "name": "",
          "type": "bytes32"
        }
      ],
      "stateMutability": "view",
      "type": "function"
    },
    {
      "inputs": [],
      "name": "MAX_VESTING_DURATION",
      "outputs": [
        {
          "internalType": "uint256",
          "name": "",
          "type": "uint256"
        }
      ],
      "stateMutability": "view",
      "type": "function"
    },
    {
      "inputs": [],
      "name": "MIN_VESTING_DURATION",
      "outputs": [
        {
          "internalType": "uint256",
          "name": "",
          "type": "uint256"
        }
      ],
      "stateMutability": "view",
      "type": "function"
    },
    {
      "inputs": [],
      "name": "VESTING_MANAGER_ROLE",
      "outputs": [
        {
          "internalType": "bytes32",
          "name": "",
          "type": "bytes32"
        }
      ],
      "stateMutability": "view",
      "type": "function"
    },
    {
      "inputs": [
        {
          "internalType": "address",
          "name": "",
          "type": "address"
        },
        {
          "internalType": "uint256",
          "name": "",
          "type": "uint256"
        }
      ],
      "name": "beneficiarySchedules",
      "outputs": [
        {
          "internalType": "bytes32",
          "name": "",
          "type": "bytes32"
        }
      ],
      "stateMutability": "view",
      "type": "function"
    },
    {
      "inputs": [
        {
          "internalType": "address",
          "name": "beneficiary",
          "type": "address"
        },
        {
          "internalType": "uint256",
          "name": "totalAmount",
          "type": "uint256"
        },
        {
          "internalType": "uint256",
          "name": "startTime",
          "type": "uint256"
        },
        {
          "internalType": "uint256",
          "name": "cliffDuration",
          "type": "uint256"
        },
        {
          "internalType": "uint256",
          "name": "vestingDuration",
          "type": "uint256"
        },
        {
          "internalType": "bool",
          "name": "revocable",
          "type": "bool"
        },
        {
          "internalType": "bytes32",
          "name": "category",
          "type": "bytes32"
        }
      ],
      "name": "createVestingSchedule",
      "outputs": [
        {
          "internalType": "bytes32",
          "name": "",
          "type": "bytes32"
        }
      ],
      "stateMutability": "nonpayable",
      "type": "function"
    },
    {
      "inputs": [
        {
          "internalType": "address",
          "name": "beneficiary",
          "type": "address"
        },
        {
          "internalType": "uint256",
          "name": "offset",
          "type": "uint256"
        },
        {
          "internalType": "uint256",
          "name": "limit",
          "type": "uint256"
        }
      ],
      "name": "getBeneficiarySchedules",
      "outputs": [
        {
          "internalType": "bytes32[]",
          "name": "",
          "type": "bytes32[]"
        }
      ],
      "stateMutability": "view",
      "type": "function"
    },
    {
      "inputs": [
        {
          "internalType": "bytes32",
          "name": "scheduleId",
          "type": "bytes32"
        }
      ],
      "name": "getReleasableAmount",
      "outputs": [
        {
          "internalType": "uint256",
          "name": "",
          "type": "uint256"
        }
      ],
      "stateMutability": "view",
      "type": "function"
    },
    {
      "inputs": [
        {
          "internalType": "bytes32",
          "name": "role",
          "type": "bytes32"
        }
      ],
      "name": "getRoleAdmin",
      "outputs": [
        {
          "internalType": "bytes32",
          "name": "",
          "type": "bytes32"
        }
      ],
      "stateMutability": "view",
      "type": "function"
    },
    {
      "inputs": [
        {
          "internalType": "bytes32",
          "name": "scheduleId",
          "type": "bytes32"
        }
      ],
      "name": "getVestingSchedule",
      "outputs": [
        {
          "internalType": "address",
          "name": "beneficiary",
          "type": "address"
        },
        {
          "internalType": "uint256",
          "name": "totalAmount",
          "type": "uint256"
        },
        {
          "internalType": "uint256",
          "name": "startTime",
          "type": "uint256"
        },
        {
          "internalType": "uint256",
          "name": "cliffDuration",
          "type": "uint256"
        },
        {
          "internalType": "uint256",
          "name": "vestingDuration",
          "type": "uint256"
        },
        {
          "internalType": "uint256",
          "name": "releasedAmount",
          "type": "uint256"
        },
        {
          "internalType": "uint256",
          "name": "lastClaimTime",
          "type": "uint256"
        },
        {
          "internalType": "bool",
          "name": "revocable",
          "type": "bool"
        },
        {
          "internalType": "bool",
          "name": "revoked",
          "type": "bool"
        },
        {
          "internalType": "bytes32",
          "name": "category",
          "type": "bytes32"
        }
      ],
      "stateMutability": "view",
      "type": "function"
    },
    {
      "inputs": [
        {
          "internalType": "bytes32",
          "name": "role",
          "type": "bytes32"
        },
        {
          "internalType": "address",
          "name": "account",
          "type": "address"
        }
      ],
      "name": "grantRole",
      "outputs": [],
      "stateMutability": "nonpayable",
      "type": "function"
    },
    {
      "inputs": [
        {
          "internalType": "bytes32",
          "name": "role",
          "type": "bytes32"
        },
        {
          "internalType": "address",
          "name": "account",
          "type": "address"
        }
      ],
      "name": "hasRole",
      "outputs": [
        {
          "internalType": "bool",
          "name": "",
          "type": "bool"
        }
      ],
      "stateMutability": "view",
      "type": "function"
    },
    {
      "inputs": [],
      "name": "pause",
      "outputs": [],
      "stateMutability": "nonpayable",
      "type": "function"
    },
    {
      "inputs": [],
      "name": "paused",
      "outputs": [
        {
          "internalType": "bool",
          "name": "",
          "type": "bool"
        }
      ],
      "stateMutability": "view",
      "type": "function"
    },
    {
      "inputs": [
        {
          "internalType": "bytes32",
          "name": "scheduleId",
          "type": "bytes32"
        }
      ],
      "name": "releaseVestedTokens",
      "outputs": [],
      "stateMutability": "nonpayable",
      "type": "function"
    },
    {
      "inputs": [
        {
          "internalType": "bytes32",
          "name": "role",
          "type": "bytes32"
        },
        {
          "internalType": "address",
          "name": "callerConfirmation",
          "type": "address"
        }
      ],
      "name": "renounceRole",
      "outputs": [],
      "stateMutability": "nonpayable",
      "type": "function"
    },
    {
      "inputs": [
        {
          "internalType": "bytes32",
          "name": "role",
          "type": "bytes32"
        },
        {
          "internalType": "address",
          "name": "account",
          "type": "address"
        }
      ],
      "name": "revokeRole",
      "outputs": [],
      "stateMutability": "nonpayable",
      "type": "function"
    },
    {
      "inputs": [
        {
          "internalType": "bytes32",
          "name": "scheduleId",
          "type": "bytes32"
        }
      ],
      "name": "revokeVestingSchedule",
      "outputs": [],
      "stateMutability": "nonpayable",
      "type": "function"
    },
    {
      "inputs": [
        {
          "internalType": "bytes4",
          "name": "interfaceId",
          "type": "bytes4"
        }
      ],
      "name": "supportsInterface",
      "outputs": [
        {
          "internalType": "bool",
          "name": "",
          "type": "bool"
        }
      ],
      "stateMutability": "view",
      "type": "function"
    },
    {
      "inputs": [],
      "name": "thalToken",
      "outputs": [
        {
          "internalType": "contract IERC20",
          "name": "",
          "type": "address"
        }
      ],
      "stateMutability": "view",
      "type": "function"
    },
    {
      "inputs": [],
      "name": "totalCommittedTokens",
      "outputs": [
        {
          "internalType": "uint256",
          "name": "",
          "type": "uint256"
        }
      ],
      "stateMutability": "view",
      "type": "function"
    },
    {
      "inputs": [],
      "name": "totalSchedules",
      "outputs": [
        {
          "internalType": "uint256",
          "name": "",
          "type": "uint256"
        }
      ],
      "stateMutability": "view",
      "type": "function"
    },
    {
      "inputs": [],
      "name": "unpause",
      "outputs": [],
      "stateMutability": "nonpayable",
      "type": "function"
    },
    {
      "inputs": [
        {
          "internalType": "bytes32",
          "name": "",
          "type": "bytes32"
        }
      ],
      "name": "vestingSchedules",
      "outputs": [
        {
          "internalType": "address",
          "name": "beneficiary",
          "type": "address"
        },
        {
          "internalType": "uint256",
          "name": "totalAmount",
          "type": "uint256"
        },
        {
          "internalType": "uint256",
          "name": "startTime",
          "type": "uint256"
        },
        {
          "internalType": "uint256",
          "name": "cliffDuration",
          "type": "uint256"
        },
        {
          "internalType": "uint256",
          "name": "vestingDuration",
          "type": "uint256"
        },
        {
          "internalType": "uint256",
          "name": "releasedAmount",
          "type": "uint256"
        },
        {
          "internalType": "uint256",
          "name": "lastClaimTime",
          "type": "uint256"
        },
        {
          "internalType": "bool",
          "name": "revocable",
          "type": "bool"
        },
        {
          "internalType": "bool",
          "name": "revoked",
          "type": "bool"
        },
        {
          "internalType": "bytes32",
          "name": "category",
          "type": "bytes32"
        }
      ],
      "stateMutability": "view",
      "type": "function"
    }
  ],
  "bytecode": "0x60a0346200024a57601f62001d8a38819003918201601f191683019291906001600160401b038411838510176200024f5781608092849260409687528339810103126200024a57620000518162000265565b90620000606020820162000265565b6200007b60606200007386850162000265565b930162000265565b6001600255926001600160a01b03908116908115620001f85780831615620001a657808416156200015257841615620000fb5791620000c7620000ce92620000d595946080526200027a565b50620002fa565b506200039c565b505161193090816200043a823960805181818161045a015281816108850152610ce80152f35b845162461bcd60e51b815260206004820152602a60248201527f5468616c69756d56657374696e673a20496e76616c696420636f6d706c69616e60448201526931b29037b33334b1b2b960b11b6064820152608490fd5b855162461bcd60e51b815260206004820152602760248201527f5468616c69756d56657374696e673a20496e76616c69642076657374696e672060448201526636b0b730b3b2b960c91b6064820152608490fd5b855162461bcd60e51b815260206004820152602560248201527f5468616c69756d56657374696e673a20496e76616c69642064656661756c742060448201526430b236b4b760d91b6064820152608490fd5b855162461bcd60e51b815260206004820152602560248201527f5468616c69756d56657374696e673a20496e76616c696420746f6b656e206164604482015264647265737360d81b6064820152608490fd5b600080fd5b634e487b7160e01b600052604160045260246000fd5b51906001600160a01b03821682036200024a57565b6001600160a01b031660008181527fad3228b676f7d3cd4284a5443f17f1962b36e491b30a40b2405849e597ba5fb5602052604081205490919060ff16620002f657818052816020526040822081835260205260408220600160ff19825416179055339160008051602062001d6a8339815191528180a4600190565b5090565b6001600160a01b031660008181527fc1e0611f017bc89a6e131c4015b1aaaee4f35da061155f625a9519c6af4ad7b960205260408120549091907fd810f479110c9771ec744414e571d78468b4e92a20f345df2ffbdc5f927a182e9060ff166200039757808352826020526040832082845260205260408320600160ff1982541617905560008051602062001d6a833981519152339380a4600190565b505090565b6001600160a01b031660008181527f335573aa7cafba10a32e2694464d1e7e5294d917876d04d506249fbf84d791af60205260408120549091907f442a94f1a1fac79af32856af2a64f63648cfa2ef3b98610a5bb7cbec4cee69859060ff166200039757808352826020526040832082845260205260408320600160ff1982541617905560008051602062001d6a833981519152339380a460019056fe608080604052600436101561001357600080fd5b60003560e01c90816301ffc9a7146112af57508063062d3bd7146112745780631cc006a314610c36578063248a9ca314610c075780632f2ff15d14610bc85780633011071e14610baa57806332dc6843146109a957806336568abe1461096257806337c909ec146109445780633f4ba83a146108b45780633f4fbb6e1461086f57806346ca4241146108175780635c975abb146107f457806360417887146107825780637cd0814b146107635780638456cb59146106e45780638f501164146103b857806391d148541461036b578063965720af1461034d5780639ef346b41461028c578063a217fddf14610270578063b438a33614610252578063b8664dca14610217578063bb6c8aea146101a9578063d547741f146101685763e72997f91461013d57600080fd5b3461016357602036600319011261016357602061015b6004356117f8565b604051908152f35b600080fd5b34610163576040366003190112610163576101a7600435610187611318565b908060005260006020526101a26001604060002001546115ec565b611783565b005b34610163576060366003190112610163576101d26101c5611302565b604435906024359061141c565b6040518091602080830160208452825180915260206040850193019160005b82811061020057505050500390f35b8351855286955093810193928101926001016101f1565b346101635760003660031901126101635760206040517fd810f479110c9771ec744414e571d78468b4e92a20f345df2ffbdc5f927a182e8152f35b34610163576000366003190112610163576020600654604051908152f35b3461016357600036600319011261016357602060405160008152f35b346101635760203660031901126101635760043560005260036020526040600020604051906102ba826113b8565b61034961012060018060a01b03835416928385526001810154948560208201526002820154806040830152600383015480606084015260048401548060808501526005850154918260a08601526006860154938460c0870152600787015495600860ff8089161515988960e0850152821c1615159889610100840152015498899101526040519a8b9a8b61135c565b0390f35b34610163576000366003190112610163576020600554604051908152f35b3461016357604036600319011261016357610384611318565b600435600052600060205260406000209060018060a01b0316600052602052602060ff604060002054166040519015158152f35b3461016357602080600319360112610163576004356103d5611612565b6103dd6116ae565b806000526003825260406000209160018060a01b0380845416330361069f5760ff600785015460081c1661065c57600184015493600581019081548096111561060b576006019081546201518081018091116105f55742106105a257610442856117f8565b9586156105515786610453916113ab565b90554290557f00000000000000000000000000000000000000000000000000000000000000009060405183810163a9059cbb60e01b815233602483015286604483015260448252608082019082821067ffffffffffffffff83111761053b578592600092604052519082865af11561052f576000513d61052657508082163b155b61050c5750507f62eb4bd96d9a7a66875a9f46f9f9d8bf6cfed3fe0578671b752301427d2a4f66906040519384523393a36001600255005b604051635274afe760e01b81529116600482015260249150fd5b600114156104d4565b6040513d6000823e3d90fd5b634e487b7160e01b600052604160045260246000fd5b60405162461bcd60e51b8152600481018690526024808201527f5468616c69756d56657374696e673a204e6f20746f6b656e7320746f2072656c6044820152636561736560e01b6064820152608490fd5b60405162461bcd60e51b815260048101859052602560248201527f5468616c69756d56657374696e673a20436c61696d20636f6f6c646f776e2061604482015264637469766560d81b6064820152608490fd5b634e487b7160e01b600052601160045260246000fd5b60405162461bcd60e51b815260048101859052602360248201527f5468616c69756d56657374696e673a20416c6c20746f6b656e732072656c65616044820152621cd95960ea1b6064820152608490fd5b6064826040519062461bcd60e51b825280600483015260248201527f5468616c69756d56657374696e673a205363686564756c65207265766f6b65646044820152fd5b60405162461bcd60e51b815260048101839052601e60248201527f5468616c69756d56657374696e673a204e6f7420617574686f72697a656400006044820152606490fd5b34610163576000366003190112610163576106fd6115b2565b610705611612565b600160ff19815416176001557f62e78cea01bee320cd4e420270b5ea74000d11b0c9f74754ebdbfc544b05a2586020604051338152a1337fb8fad2fa0ed7a383e747c309ef2c4391d7b65592a48893e57ccc1fab70791456600080a2005b34610163576000366003190112610163576020604051630784ce008152f35b34610163576020366003190112610163576004356000526003602052604060002060018060a01b03815416610349600183015491600284015493600381015491600482015460058301546006840154916008600786015495015495604051998a9960ff808960081c169816968b61135c565b3461016357600036600319011261016357602060ff600154166040519015158152f35b3461016357604036600319011261016357610830611302565b6001600160a01b0316600090815260046020526040902080546024359190821015610163576020916108619161132e565b90546040519160031b1c8152f35b34610163576000366003190112610163576040517f00000000000000000000000000000000000000000000000000000000000000006001600160a01b03168152602090f35b34610163576000366003190112610163576108cd6115b2565b60015460ff8116156109325760ff19166001557f5db9ee0a495bf2e6ff9c91a7834c1ba4fdd244a5e8aa4e537bd38aeae4b073aa6020604051338152a1337ff5cbf596165cc457b2cd92e8d8450827ee314968160a5696402d75766fc52caf600080a2005b604051638dfc202b60e01b8152600490fd5b34610163576000366003190112610163576020604051620151808152f35b346101635760403660031901126101635761097b611318565b336001600160a01b03821603610997576101a790600435611783565b60405163334bd91960e11b8152600490fd5b3461016357602080600319360112610163576004356109c6611538565b6109ce611612565b6109d66116ae565b806000526003825260406000209060018060a01b03928383541615610b5b57600783019384549360ff851615610b165760ff8560081c16610ad1577fdbfc1fbe382eed671971d1c491d4108e66995ded4191ef7271701a283f1b05c6939495610a436002830154426113f7565b6004830154906000828210610a9f57505050610100610a6b60018401545b60018501546113f7565b9761ff00191617905585610a8b575b541693604051908152a36001600255005b610a97866006546113f7565b600655610a7a565b61010092610a6b926003870154811015610abb575b5050610a61565b610aca925060018701546116cf565b8a80610ab4565b60405162461bcd60e51b815260048101849052601f60248201527f5468616c69756d56657374696e673a20416c7265616479207265766f6b6564006044820152606490fd5b60405162461bcd60e51b815260048101849052601d60248201527f5468616c69756d56657374696e673a204e6f74207265766f6361626c650000006044820152606490fd5b6084906040519062461bcd60e51b82526004820152602260248201527f5468616c69756d56657374696e673a205363686564756c65206e6f7420666f756044820152611b9960f21b6064820152fd5b3461016357600036600319011261016357602060405162278d008152f35b34610163576040366003190112610163576101a7600435610be7611318565b90806000526000602052610c026001604060002001546115ec565b611630565b346101635760203660031901126101635760043560005260006020526020600160406000200154604051908152f35b346101635760e036600319011261016357610c4f611302565b60a435604435811515820361016357610c66611538565b610c6e611612565b6001600160a01b0383161561122357602435156111ce5762278d006084351061117e57630784ce006084351161112f57606435608435106110d557806110cf575042905b42821061108a576301e1338042018042116105f557821161103a576040516370a0823160e01b81523060048201526020816024817f00000000000000000000000000000000000000000000000000000000000000006001600160a01b03165afa90811561052f57600091611008575b50610d306024356006546113ab565b11610fad5760055491604051926bffffffffffffffffffffffff198560601b16602085015260243560348501528160548501524260748501526094840152609483528260c081011067ffffffffffffffff60c08501111761053b5760c08301604052825160208401209283600052600360205260018060a01b0360406000205416610f56575060089060405192610dc6846113b8565b60018060a01b0386168452602084019160243583526040850190815260608501606435815260808601608435815260a08701906000825260c08801926000845260e089019515158652610100890194600086526101208a019760c43589528b600052600360205260406000209a60018060a01b039051166bffffffffffffffffffffffff60a01b8c5416178b555160018b01555160028a015551600389015551600488015551600587015551600686015560078501915115159060ff61ff00845492511515871b1692169061ffff1916171790555191015560018060a01b0382166000526004602052604060002080546801000000000000000081101561053b57610ed69160018201815561132e565b929080549360031b600019948585831b921b1916179055610efb6024356006546113ab565b6006556005549283146105f557600160209301600555817f38f6e0961aa8283676cf66fd09cbbc2f40e7d30453ba89606e1d5cf96775159e6040805193602435855260c4358786015260018060a01b031693a3604051908152f35b60c060849162461bcd60e51b82820152602060c4820152602560e48201527f5468616c69756d56657374696e673a205363686564756c6520494420636f6c6c6101048201526434b9b4b7b760d91b61012482015201fd5b60405162461bcd60e51b815260206004820152602d60248201527f5468616c69756d56657374696e673a20496e73756666696369656e7420636f6e60448201526c74726163742062616c616e636560981b6064820152608490fd5b90506020813d602011611032575b81611023602093836113d5565b81010312610163575184610d21565b3d9150611016565b60405162461bcd60e51b815260206004820152602260248201527f5468616c69756d56657374696e673a2053746172742074696d6520746f6f206660448201526130b960f11b6064820152608490fd5b60405162461bcd60e51b815260206004820152601f60248201527f5468616c69756d56657374696e673a2043616e6e6f74206261636b64617465006044820152606490fd5b90610cb2565b60405162461bcd60e51b815260206004820152602c60248201527f5468616c69756d56657374696e673a20436c6966662063616e6e6f742065786360448201526b32b2b210323ab930ba34b7b760a11b6064820152608490fd5b60405162461bcd60e51b815260206004820152602160248201527f5468616c69756d56657374696e673a204475726174696f6e20746f6f206c6f6e6044820152606760f81b6064820152608490fd5b60405162461bcd60e51b815260206004820152602260248201527f5468616c69756d56657374696e673a204475726174696f6e20746f6f2073686f6044820152611c9d60f21b6064820152608490fd5b60405162461bcd60e51b815260206004820152602760248201527f5468616c69756d56657374696e673a20416d6f756e74206d75737420626520706044820152666f73697469766560c81b6064820152608490fd5b60405162461bcd60e51b815260206004820152602360248201527f5468616c69756d56657374696e673a20496e76616c69642062656e656669636960448201526261727960e81b6064820152608490fd5b346101635760003660031901126101635760206040517f442a94f1a1fac79af32856af2a64f63648cfa2ef3b98610a5bb7cbec4cee69858152f35b34610163576020366003190112610163576004359063ffffffff60e01b821680920361016357602091637965db0b60e01b81149081156112f1575b5015158152f35b6301ffc9a760e01b149050836112ea565b600435906001600160a01b038216820361016357565b602435906001600160a01b038216820361016357565b80548210156113465760005260206000200190600090565b634e487b7160e01b600052603260045260246000fd5b9693909a9998959261012098959261014089019c60018060a01b03168952602089015260408801526060870152608086015260a085015260c0840152151560e083015215156101008201520152565b919082018092116105f557565b610140810190811067ffffffffffffffff82111761053b57604052565b90601f8019910116810190811067ffffffffffffffff82111761053b57604052565b919082039182116105f557565b67ffffffffffffffff811161053b5760051b60200190565b6001600160a01b03166000908152600460208181526040832080549495929490939192818710156114f657611465916114568892836113ab565b908082116114ee575b506113f7565b9261146f84611404565b9561147d60405197886113d5565b848752601f1961148c86611404565b01366020890137825b8581106114a6575050505050505090565b6114b96114b382846113ab565b8461132e565b90549089518310156114db5760031b1c600582901b8901860152600101611495565b634e487b7160e01b865260328952602486fd5b90503861145f565b50509350505050604051906020820182811067ffffffffffffffff8211176115245760405280825236813790565b634e487b7160e01b82526041600452602482fd5b3360009081527fc1e0611f017bc89a6e131c4015b1aaaee4f35da061155f625a9519c6af4ad7b960205260409020547fd810f479110c9771ec744414e571d78468b4e92a20f345df2ffbdc5f927a182e9060ff16156115945750565b6044906040519063e2517d3f60e01b82523360048301526024820152fd5b3360009081527fad3228b676f7d3cd4284a5443f17f1962b36e491b30a40b2405849e597ba5fb5602052604081205460ff16156115945750565b80600052600060205260406000203360005260205260ff60406000205416156115945750565b60ff6001541661161e57565b60405163d93c066560e01b8152600490fd5b9060009180835282602052604083209160018060a01b03169182845260205260ff604084205416156000146116a957808352826020526040832082845260205260408320600160ff198254161790557f2f8788117e7eff1d82e926ec794901d17c78024a50270940304540a733656f0d339380a4600190565b505090565b60028054146116bd5760028055565b604051633ee5aeb560e01b8152600490fd5b9091600019838309928083029283808610950394808603951461175f5784831115611746579082910981600003821680920460028082600302188083028203028083028203028083028203028083028203028083028203028092029003029360018380600003040190848311900302920304170290565b82634e487b71600052156003026011186020526024601cfd5b50508092501561176d570490565b634e487b7160e01b600052601260045260246000fd5b9060009180835282602052604083209160018060a01b03169182845260205260ff6040842054166000146116a95780835282602052604083208284526020526040832060ff1981541690557ff6391f5c32d9c69d2a47ea670b442974b53935d1edc7fd64eb21e047a839171b339380a4600190565b6000526003602052604060002060405190611812826113b8565b60018060a01b03815416825260018101549160208101928352600282015490604081019082825260038401548060608301526004850154936080830194855260058601549560a08401968752600681015460c085015260ff6007820154818116151560e087015260081c1615936101206008861593846101008501520154910152926118e7575b50506118de576118aa9051426113f7565b81518110156118cf57925190516118cc936118c4926116cf565b9051906113f7565b90565b50506118cc91519051906113f7565b50505050600090565b6118f192506113ab565b4210388061189956fea2646970667358221220e4bacef5e5130b7d73a0008dac1d282d25bfc5d19ee959683ce622dc3a525d6364736f6c634300081800332f8788117e7eff1d82e926ec794901d17c78024a50270940304540a733656f0d",
  "linkReferences": {},
  "deployedLinkReferences": {}
}